:100000000C9434000C9451000C9451000C94510049
:100010000C9451000C9451000C9451000C9451001C
:100020000C9451000C9451000C9451000C9451000C
:100030000C9451000C9451000C9451000C945100FC
:100040000C9451000C9451000C9451000C945100EC
:100050000C9451000C9451000C9451000C945100DC
:100060000C9451000C94510011241FBECFEFD8E026
:10007000DEBFCDBF13E0A0E4B2E0ECE3F9E102C0E3
:1000800005900D92A838B107D9F713E0A8E8B3E0BE
:1000900001C01D92AF38B107E1F70E94D8050C945A
:1000A0009C0C0C940000EF92FF920F931F937B0126
:1000B0008C0120E030E040E05FE40E94530388239D
:1000C0008CF0C801B70120E030E040E05FE40E941E
:1000D000CB010E94B3039B01AC0120503040404053
:1000E000504806C0C801B7010E94B3039B01AC0190
:1000F000B901CA011F910F91FF90EF900895A0E000
:10010000B0E0E5E8F0E00C949E09DC012B01FA0177
:100110009C91923008F439C1EB018881823008F457
:1001200033C1943069F4843009F02FC111969C9149
:1001300011978981981709F428C1A3E6B3E025C176
:10014000843009F421C18230A9F4923009F01DC134
:100150009A01AD0188E0EA010990AE01E901099236
:100160009E018150C1F7E201898111969C918923FA
:10017000818308C1923009F407C112962D903C90FA
:100180001397EB018A819B811496AD90BD90CD9021
:10019000DC901797EC80FD800E811F819101281B58
:1001A000390BB90137FF04C066277727621B730B31
:1001B000603271050CF061C0121613066CF5370140
:1001C0004801062E04C096948794779467940A9405
:1001D000D2F721E030E040E050E004C0220F331FAE
:1001E000441F551F6A95D2F721503040404050407F
:1001F0002E213F2140235123211531054105510571
:1002000021F021E030E040E050E079018A01E62869
:10021000F728082919293CC0232BD1F1260E371EB7
:1002200035014601062E04C096948794779467940E
:100230000A94D2F721E030E040E050E004C0220F01
:10024000331F441F551F6A95D2F72150304040405C
:1002500050402A213B214C215D21211531054105CA
:10026000510521F021E030E040E050E059016A0101
:10027000A628B728C828D9280BC0821593052CF0CA
:100280001C01AA24BB24650103C0EE24FF248701BE
:1002900011969C91D20111968C91981709F445C042
:1002A000992339F0A80197012A193B094C095D09E6
:1002B00006C0A60195012E193F09400B510B57FDB1
:1002C00008C0118233822282248335834683578378
:1002D0001DC081E081833382228288279927DC0137
:1002E000821B930BA40BB50B84839583A683B783E2
:1002F0000DC0220F331F441F551F248335834683AF
:1003000057838281938101979383828324813581EE
:1003100046815781DA01C9010197A109B1098F5FAF
:100320009F4FAF4FBF4328F30BC09183338222828C
:10033000EA0CFB1C0C1D1D1DE482F582068317834D
:1003400083E08083248135814681578157FF1AC01D
:10035000C901AA2797FDA095BA2F81709070A0704F
:10036000B0705695479537952795822B932BA42BE4
:10037000B52B84839583A683B7838281938101966D
:1003800093838283DF0101C0D201CD01CDB7DEB7F7
:10039000E2E10C94BA09A0E2B0E0E1EDF1E00C94E6
:1003A000AA0969837A838B839C832D833E834F8341
:1003B0005887E9E0EE2EF12CEC0EFD1ECE010196E1
:1003C000B7010E94DC048E010F5E1F4FCE0105961F
:1003D000B8010E94DC048A8991E089278A8BC701D1
:1003E000B801AE01475E5F4F0E947F000E94070484
:1003F000A096E6E00C94C609A0E2B0E0E2E0F2E0EC
:100400000C94AA0969837A838B839C832D833E8312
:100410004F835887F9E0EF2EF12CEC0EFD1ECE0134
:100420000196B7010E94DC048E010F5E1F4FCE01C2
:100430000596B8010E94DC04C701B801AE01475E11
:100440005F4F0E947F000E940704A096E6E00C9494
:10045000C609A0E2B0E0EFE2F2E00C949E096983E5
:100460007A838B839C832D833E834F835887CE0171
:100470000196BE01675F7F4F0E94DC04CE010596A6
:10048000BE016F5E7F4F0E94DC049985923088F038
:1004900089898230C8F0943019F4823051F404C054
:1004A000843029F4923081F483E693E0C6C0923020
:1004B00049F420E09A858A89981321E02A87CE01A1
:1004C0000996BBC0823049F420E09A858A89981346
:1004D00021E02A8BCE014196B0C02D843E844F840A
:1004E00058886D887E888F88988CEE24FF24870139
:1004F000AA24BB24650140E050E060E070E0E0E049
:10050000F0E0C10181709070892BE9F0E60CF71CD6
:10051000081D191D9A01AB012A0D3B1D4C1D5D1DC7
:1005200080E090E0A0E0B0E0E614F70408051905CB
:1005300020F481E090E0A0E0B0E0BA01A901480F0A
:10054000591F6A1F7B1FAA0CBB1CCC1CDD1C97FE0D
:1005500008C081E090E0A0E0B0E0A82AB92ACA2A49
:10056000DB2A3196E032F10549F0660C771C881CD5
:10057000991C5694479437942794C3CFFA85EA89F7
:100580002B893C898B859C85280F391F2E5F3F4F17
:1005900017C0CA0181709070892B61F0169507957C
:1005A000F794E79480E090E0A0E0B0E8E82AF92A28
:1005B0000A2B1B2B76956795579547952F5F3F4FD5
:1005C00077FDE7CF0CC0440F551F661F771F17FD3F
:1005D0004160EE0CFF1C001F111F215030404030C5
:1005E00090E0590790E0690790E4790760F32B8F5A
:1005F0003C8FDB01CA018F779070A070B07080349F
:100600009105A105B10561F447FD0AC0E114F104AB
:100610000105110529F0405C5F4F6F4F7F4F407817
:100620001A8EFE1711F081E08A8F4D8F5E8F6F8FCB
:1006300078A383E0898FCE0149960E940704A09693
:10064000E2E10C94BA09A8E1B0E0E9E2F3E00C942D
:10065000AA0969837A838B839C832D833E834F838E
:10066000588789E0E82EF12CEC0EFD1ECE01019694
:10067000B7010E94DC048E010F5E1F4FCE0105966C
:10068000B8010E94DC048985823040F0898982307B
:1006900028F0C701B8010E94540501C08FEF689689
:1006A000E6E00C94C609A8E1B0E0E9E5F3E00C94BB
:1006B000AA0969837A838B839C832D833E834F832E
:1006C000588789E0E82EF12CEC0EFD1ECE01019634
:1006D000B7010E94DC048E010F5E1F4FCE0105960C
:1006E000B8010E94DC048985823040F0898982301B
:1006F00028F0C701B8010E94540501C08FEF689629
:10070000E6E00C94C609A8E1B0E0E9E8F3E00C9457
:10071000AA0969837A838B839C832D833E834F83CD
:10072000588789E0E82EF12CEC0EFD1ECE010196D3
:10073000B7010E94DC048E010F5E1F4FCE010596AB
:10074000B8010E94DC048985823040F089898230BA
:1007500028F0C701B8010E94540501C081E06896E5
:10076000E6E00C94C609ACE0B0E0E9EBF3E00C94F1
:10077000AE0969837A838B839C83CE010196BE0187
:100780006B5F7F4F0E94DC048D81823061F182308B
:1007900050F1843021F48E81882351F12EC02F81B5
:1007A000388537FD20C06E812F3131051CF066235E
:1007B000F9F023C08EE190E0821B930B29853A85E6
:1007C0004B855C8504C056954795379527958A9546
:1007D000D2F76623B1F050954095309521953F4F63
:1007E0004F4F5F4F0EC020E030E040E050E009C0C6
:1007F0002FEF3FEF4FEF5FE704C020E030E040E035
:1008000050E8B901CA012C96E2E00C94CA09DF92C3
:10081000EF92FF920F931F93FC01E480F580068115
:100820001781D1808081823048F480E090E0A0E19F
:10083000B0E0E82AF92A0A2B1B2BA5C0843009F462
:100840009FC0823021F4EE24FF24870105C0E1140B
:10085000F1040105110519F4E0E0F0E096C06281B1
:1008600073819FEF623879070CF05BC022E83FEF9D
:10087000261B370B2A3131052CF020E030E040E018
:1008800050E02AC0B801A701022E04C076956795F2
:10089000579547950A94D2F781E090E0A0E0B0E048
:1008A00004C0880F991FAA1FBB1F2A95D2F7019772
:1008B000A109B1098E219F21A023B1230097A10591
:1008C000B10521F081E090E0A0E0B0E09A01AB0139
:1008D000282B392B4A2B5B2BDA01C9018F779070BB
:1008E000A070B07080349105A105B10539F427FFDF
:1008F00009C0205C3F4F4F4F5F4F04C0215C3F4F0A
:100900004F4F5F4FE0E0F0E02030A0E03A07A0E07A
:100910004A07A0E45A0710F0E1E0F0E079018A010B
:1009200027C06038710564F5FB01E158FF4FD8011D
:10093000C7018F779070A070B07080349105A105C9
:10094000B10539F4E7FE0DC080E490E0A0E0B0E02E
:1009500004C08FE390E0A0E0B0E0E80EF91E0A1FAB
:100960001B1F17FF05C016950795F794E79431965E
:1009700087E016950795F794E7948A95D1F705C017
:10098000EE24FF248701EFEFF0E06E2F67956627D6
:100990006795902F9F77D794DD24D7948E2F8695D7
:1009A000492F462B582F5D29B701CA011F910F917E
:1009B000FF90EF90DF900895FC01DB0140815181B1
:1009C0002281622F6F7770E0221F2227221F9381DE
:1009D000892F880F822B282F30E0991F9927991F84
:1009E00011969C93119721153105A9F541155105D3
:1009F0006105710511F482E037C082E89FEF13961C
:100A00009C938E9312979A01AB0167E0220F331FDC
:100A1000441F551F6A95D1F783E08C930DC0220FB8
:100A2000331F441F551F12968D919C911397019768
:100A300013969C938E931297203080E0380780E0C5
:100A4000480780E4580758F314962D933D934D932F
:100A50005C93179708952F3F310579F4411551059F
:100A60006105710519F484E08C93089564FF03C057
:100A700081E08C9312C01C9210C02F573040139607
:100A80003C932E93129783E08C9387E0440F551F7D
:100A9000661F771F8A95D1F7706414964D935D9306
:100AA0006D937C93179708951F93DC01FB019C9134
:100AB000923008F447C08081823008F443C09430FB
:100AC00051F411961C91843099F58181682F70E062
:100AD000611B71093FC0843021F0923031F48230C3
:100AE000B9F18181882389F12DC011961C9111974C
:100AF0008230F1F081811817D9F412962D913C9132
:100B00001397828193818217930794F028173907EE
:100B1000BCF014968D919D910D90BC91A02D2481D7
:100B2000358146815781281739074A075B0718F432
:100B3000112341F00AC082179307A407B50740F4B8
:100B4000112319F061E070E005C06FEF7FEF02C084
:100B500060E070E0CB011F910895DF93CF9300D048
:100B60000F92CDB7DEB789837B836A83E0ECF0E038
:100B70008081882F90E0807290700097B9F3E6EC46
:100B8000F0E08981808380E090E00F900F900F90DB
:100B9000CF91DF910895DF93CF93CDB7DEB78BE68A
:100BA00093E090938C0380938B03CF91DF91089512
:100BB000DF93CF93CDB7DEB76C970FB6F894DEBF57
:100BC0000FBECDBFE4E2F0E08FEF8083E4ECF0E015
:100BD00080E190E091838083E0ECF0E01082E1EC32
:100BE000F0E088E08083E2ECF0E086E0808380E063
:100BF00090E0AAEFB3E4898F9A8FAB8FBC8F698D99
:100C00007A8D8B8D9C8D20E030E04AE755E40E9480
:100C10002902DC01CB018D8B9E8BAF8BB88F6D8948
:100C20007E898F89988D20E030E040E85FE30E9464
:100C3000830388232CF481E090E09C8B8B8B3FC056
:100C40006D897E898F89988D20E03FEF4FE757E4CB
:100C50000E94230318164CF5698D7A8D8B8D9C8D1F
:100C600020E030E040E251E40E942902DC01CB01A7
:100C7000BC01CD010E945300DC01CB019C8B8B8B0E
:100C80000FC080E991E09A8B898B89899A890197B5
:100C9000F1F79A8B898B8B899C8901979C8B8B8B25
:100CA0008B899C89009769F714C06D897E898F892B
:100CB000988D0E945300DC01CB019C8B8B8B8B8920
:100CC0009C89988B8F878F8598890197F1F7988BEE
:100CD0008F870E94CB0580E492E00E94EA090E947F
:100CE0001D078EE492E00E94EA0980E090E4ACE9FE
:100CF000B5E48B879C87AD87BE876B857C858D85AA
:100D00009E8520E030E04AE755E40E942902DC019C
:100D1000CB018F839887A987BA876F81788589856A
:100D20009A8520E030E040E85FE30E948303882357
:100D30002CF481E090E09E838D833FC06F817885A5
:100D400089859A8520E03FEF4FE757E40E9423030F
:100D500018164CF56B857C858D859E8520E030E0EE
:100D600040E251E40E942902DC01CB01BC01CD012B
:100D70000E945300DC01CB019E838D830FC080E96C
:100D800091E09C838B838B819C810197F1F79C83FD
:100D90008B838D819E8101979E838D838D819E8122
:100DA000009769F714C06F81788589859A850E94BC
:100DB0005300DC01CB019E838D838D819E819A83BC
:100DC000898389819A810197F1F79A83898380E0E9
:100DD00090E06C960FB6F894DEBF0FBECDBFCF91FA
:100DE000DF910895DF93CF9300D00F92CDB7DEB798
:100DF00089837B836A83E0ECF0E08081882F90E038
:100E0000807290700097B9F3E6ECF0E089818083FE
:100E100080E090E00F900F900F90CF91DF910895B8
:100E2000DF93CF93CDB7DEB789E793E090938C0340
:100E300080938B03CF91DF910895DF93CF9300D000
:100E4000CDB7DEB7198246C08981282F30E000D0A7
:100E500000D0EDB7FEB7319689E592E091838083AB
:100E6000338322830E94D5090F900F900F900F902B
:100E70000E9475078823B9F08981282F30E000D0BF
:100E800000D0EDB7FEB7319688E692E0918380837B
:100E9000338322830E94D5090F900F900F900F90FB
:100EA00089818A831CC08981282F30E000D000D03E
:100EB000EDB7FEB731968FE792E09183808333835D
:100EC00022830E94D5090F900F900F900F90898177
:100ED0008F5F89838981883008F4B6CF1A828A812E
:100EE0000F900F90CF91DF910895DF93CF9300D0B3
:100EF0000F92CDB7DEB7198280918803282F30E09A
:100F00003B832A834A815B8141305105A9F08A8164
:100F10009B8188309105D9F02A813B8121153105CB
:100F200009F520E031E080E091E0B90140E451E0D2
:100F30000E94E607898338C020E031E080E092E03B
:100F4000B90140E051E00E94E60789832DC020E00E
:100F500031E080EC98E0B90140E450E00E94E607FF
:100F6000898322C080918803882F90E0880F991F81
:100F7000880F991F909581959F4F9C012F5F3F4F40
:100F800080EC9FEFAC01249FC001259F900D349F02
:100F9000900D112480509F4F20E031E0B90140E4D2
:100FA00051E00E94E6078983809188038F5F8093D8
:100FB000880380918803883010F01092880389811B
:100FC0000F900F900F90CF91DF910895DF93CF9303
:100FD000CDB7DEB72E970FB6F894DEBF0FBECDBFEC
:100FE0009A8789877C876B875E874D871F821E82E1
:100FF0001D821C821B822B853C8549855A852417BE
:101000003507E9F01A82198213C089819A81AB856C
:10101000BC85A80FB91F89819A81E985FA85E80FF7
:10102000F91F80818C9389819A8101969A838983A3
:1010300089819A812D853E858217930730F38D85AE
:101040009E85019729853A85280F391F00D000D049
:1010500000D0EDB7FEB7319683E992E091838083AB
:1010600049855A8553834283358324830E94D50959
:101070008DB79EB706960FB6F8949EBF0FBE8DBF74
:1010800029853A8547E0203C340709F063C0EDE547
:10109000F0E0808191819C838B83ADE5B0E0EDE54C
:1010A000F0E02081318189859A85A901481B590B7F
:1010B000CA012B853C85820F931F11969C938E93BA
:1010C0004B855C85EDE5F0E02081318189859A854D
:1010D000281B390B69857A858DB79EB708970FB69F
:1010E000F8949EBF0FBE8DBFEDB7FEB7319688EB6B
:1010F00092E0918380835383428335832483778373
:1011000066830E94D5092DB73EB7285F3F4F0FB6C3
:10111000F8943EBF0FBE2DBFEDE5F0E02081318198
:1011200000D000D000D0EDB7FEB731968BEF92E043
:10113000918380834B815C815383428335832483F5
:101140000E94D5098DB79EB706960FB6F8949EBF3C
:101150000FBE8DBF1F821E821DC089859A852E817C
:101160003F81820F931F38E0863C930731F44E8114
:101170005F814E5F5F4F5F834E83E985FA858E8185
:101180009F81E80FF91F10822E813F812F5F3F4F13
:101190003F832E834E815F818D859E854817590739
:1011A000E0F21F821E8219C0E985FA852E813F81F7
:1011B000E20FF31F8081882319F031E03D8308C0DE
:1011C000E985FA854E815F81E40FF51F8FEF8083FB
:1011D0008E819F8101969F838E832E813F814D85D5
:1011E0005E852417350700F38D859E859F838E834A
:1011F0001BC08E819F810197E985FA85E80FF91F51
:1012000080818F3F19F091E09D8308C08E819F817E
:101210000197E985FA85E80FF91F10822E813F8139
:10122000215030403F832E834E815F81411551050F
:1012300001F71F821E8211C0E985FA858E819F8188
:10124000E80FF91F8081882311F091E09D832E81A2
:101250003F812F5F3F4F3F832E834E815F818D857E
:101260009E854817590740F32B853C8549855A854B
:1012700024173507F1F01F821E8214C0E985FA8514
:101280008E819F81E80FF91FAB85BC852E813F8140
:10129000A20FB31F8C9180834E815F814F5F5F4FA0
:1012A0005F834E838E819F812D853E8582179307B4
:1012B00028F300D000D0EDB7FEB7319684E293E07A
:1012C0009183808349855A85538342830E94D5093F
:1012D0000F900F900F900F9089859A8527E0803CA2
:1012E0009207D9F4EDE5F0E04B815C8151834083B6
:1012F000EDE5F0E02081318100D000D0EDB7FEB700
:1013000031968DE493E091838083338322830E941E
:10131000D5090F900F900F900F905D81552319F014
:1013200081E0888701C0188688852E960FB6F894CC
:10133000DEBF0FBECDBFCF91DF9108952F923F92B8
:101340004F925F926F927F928F929F92AF92BF92D5
:10135000CF92DF92EF92FF920F931F93CF93DF9381
:10136000CDB7DEB7CA1BDB0B0FB6F894DEBF0FBEDE
:10137000CDBF09942A88398848885F846E847D842B
:101380008C849B84AA84B984C884DF80EE80FD802D
:101390000C811B81AA81B981CE0FD11D0FB6F894A3
:1013A000DEBF0FBECDBFED010895A0E0B0E0EBEDD4
:1013B000F9E00C94AE09FE0135966191719180912E
:1013C0008B0390918C03AF010E941F0A2096E2E0EC
:1013D0000C94CA090F931F93CF93DF938C01E09174
:1013E0008B03F0918C03838181FF21C0C0E0D0E0AA
:1013F0000DC0E0918B03F0918C0320853185BF01F6
:10140000F9010995892B11F0CFEFDFEFF8018191F8
:101410008F01882371F7E0918B03F0918C03208575
:1014200031858AE0BF01F9010995892B11F0CFEFD1
:10143000DFEFCE01DF91CF911F910F910895ABE0C7
:10144000B0E0E5E2FAE00C949E093C012B015A0160
:10145000FC0117821682838181FD03C06FEF7FEF4D
:10146000C6C19AE0892E1E010894211C311CF3018B
:101470002381F20123FD859123FF81912F01882390
:1014800009F4B2C1853239F423FD859123FF81919E
:101490002F01853229F490E0B3010E94120CE7CFAE
:1014A000982FFF24EE249924FFE1FF15D0F09B3202
:1014B00069F09C3228F4903259F0933291F40EC0C6
:1014C0009D3249F0903369F441E024C052E0F52A9E
:1014D00084E0F82A28C098E0F92A25C0E0E1FE2A35
:1014E00022C0F7FC29C0892F80538A3070F4F6FEA1
:1014F00005C0989C902C1124980E15C0E89CE02CF7
:101500001124E80EF0E2FF2A0EC09E3229F4F6FC08
:101510006BC140E4F42A07C09C3619F450E8F52A60
:1015200002C0983649F4F20123FD959123FF919171
:101530002F01992309F0B8CF892F8554833018F0F3
:101540008052833038F444E050E0A40EB51E5FE3CF
:1015500059830FC0933631F0933779F0933509F002
:1015600056C020C0F5018081898342E050E0A40E7E
:10157000B51E610101E010E012C0F501C080D1800C
:10158000F6FC03C06FEF7FEF02C0692D70E042E010
:1015900050E0A40EB51EC6010E94070C8C015FE747
:1015A000F52214C0F501C080D180F6FC03C06FEFB6
:1015B0007FEF02C0692D70E042E050E0A40EB51E3E
:1015C000C6010E94FC0B8C0150E8F52AF3FE07C00F
:1015D0001AC080E290E0B3010E94120CEA948E2DB2
:1015E00090E008171907A8F30EC0F601F7FC8591E3
:1015F000F7FE81916F0190E0B3010E94120CE1109F
:10160000EA94015010400115110579F7EAC09436AB
:1016100011F0993669F5F7FE08C0F5012081318196
:101620004281538184E090E00AC0F501808191817C
:101630009C01442737FD4095542F82E090E0A80E8E
:10164000B91E9FE6F92257FF09C050954095309585
:1016500021953F4F4F4F5F4FE0E8FE2ACA01B90185
:10166000A1012AE030E00E943E0CD82ED21840C0E2
:10167000953729F41F2D1F7E2AE030E01DC01F2D55
:10168000197F9F3661F0903720F4983509F0ACC08F
:101690000FC0903739F0983709F0A6C004C028E091
:1016A00030E00AC0106114FD146020E130E004C095
:1016B00014FD166020E132E017FF08C0F5016081DB
:1016C00071818281938144E050E008C0F5018081FE
:1016D0009181BC0180E090E042E050E0A40EB51E94
:1016E000A1010E943E0CD82ED2188FE7F82EF122CD
:1016F000F6FE0BC05EEFF522D91438F4F4FE07C0F5
:10170000F2FC05C08FEEF82202C01D2D01C0192D7C
:10171000F4FE0DC0FE01ED0DF11D8081803319F442
:1017200099EEF92208C01F5FF2FE05C003C08F2D9D
:10173000867809F01F5F0F2DF3FC14C0F0FE0FC078
:101740001E1510F09D2C0BC09D2C9E0C911A1E2D69
:1017500006C080E290E0B3010E94120C1F5F1E15CC
:10176000C0F304C01E1510F4E11A01C0EE2404FFFA
:101770000FC080E390E0B3010E94120C02FF1DC075
:1017800001FD03C088E790E00EC088E590E00BC043
:10179000802F867891F001FF02C08BE201C080E2C9
:1017A000F7FC8DE290E0B3010E94120C06C080E3CA
:1017B00090E0B3010E94120C9A94D914C0F3DA9409
:1017C000F101ED0DF11D808190E0B3010E94120C3A
:1017D000DD20A9F706C080E290E0B3010E94120C60
:1017E000EA94EE20C1F743CEF30166817781CB0105
:1017F0002B96E2E10C94BA09FC010590615070400F
:101800000110D8F7809590958E0F9F1F0895FC01C9
:101810006150704001900110D8F7809590958E0F1F
:101820009F1F08950F931F93CF93DF938C01EB01BC
:101830008B8181FF1BC082FF0DC02E813F818C8177
:101840009D812817390764F4E881F9810193F983B0
:10185000E88306C0E885F985802F0995892B31F446
:101860008E819F8101969F838E8302C00FEF1FEFB1
:10187000C801DF91CF911F910F910895FA01AA2716
:10188000283051F1203181F1E8946F936E7F6E5FC3
:101890007F4F8F4F9F4FAF4FB1E03ED0B4E03CD071
:1018A000670F781F891F9A1FA11D680F791F8A1F54
:1018B000911DA11D6A0F711D811D911DA11D20D0BB
:1018C00009F468943F912AE0269F11243019305D75
:1018D0003193DEF6CF010895462F4770405D419366
:1018E000B3E00FD0C9F7F6CF462F4F70405D4A33B3
:1018F00018F0495D31FD4052419302D0A9F7EACF7B
:10190000B4E0A6959795879577956795BA95C9F7A9
:1019100000976105710508959B01AC010A2E06949C
:101920005795479537952795BA95C9F7620F731F55
:0C193000841F951FA01D0895F894FFCFA0
:10193C005465737420737461727465642E005465FD
:10194C00737420646F6E652E005465737420626C22
:10195C006F636B2025640A005352414D204552524F
:10196C004F52204020426C6F636B2025640A005359
:10197C0052414D204F4B204020426C6F636B202511
:10198C00640A0042756666657220636F70696564EF
:10199C000A537461727420696E2025640A456E6462
:1019AC0020696E2025640A004275666665722061A6
:1019BC006464726573733A2025780A4469737461A0
:1019CC006E636520746F20737461636B706F696EE6
:1019DC007465723A2025780A436865636B696E6793
:1019EC0020617265613A2025780A004368616E6750
:1019FC0065642074686520737461636B20706F6913
:101A0C006E7465722066726F6D20257820746F205D
:101A1C0025780A00436F7069656420627566666597
:101A2C0072206261636B0A46696E69736865642033
:101A3C0073636F7574696E672025640A00535020B8
:101A4C006973206E6F77206261636B20617420254F
:101A5C00640A00000000000000000000000002000A
:101A6C00000000AD050000000000000002000000B6
:081A7C0000F20600000000006A
:00000001FF
