:100000000C9434000C9451000C9451000C94510049
:100010000C9451000C9451000C9451000C9451001C
:100020000C9451000C9451000C9451000C9451000C
:100030000C9451000C9488080C9451000C945100BD
:100040000C9451000C9451000C9451000C945100EC
:100050000C9451000C9451000C9451000C945100DC
:100060000C94C8080C94510011241FBECFEFD8E0A7
:10007000DEBFCDBF12E0A0E4B2E0EAEBF5E202C0E1
:1000800005900D92AA35B107D9F714E0AAE5B2E0C0
:1000900001C01D92A636B107E1F70E947D090C94BC
:1000A000DB120C940000EF92FF920F931F937B01E1
:1000B0008C0120E030E040E05FE40E94530388239D
:1000C0008CF0C801B70120E030E040E05FE40E941E
:1000D000CB010E94B3039B01AC0120503040404053
:1000E000504806C0C801B7010E94B3039B01AC0190
:1000F000B901CA011F910F91FF90EF900895A0E000
:10010000B0E0E5E8F0E00C94BD0FDC012B01FA0152
:100110009C91923008F439C1EB018881823008F457
:1001200033C1943069F4843009F02FC111969C9149
:1001300011978981981709F428C1A4E4B2E025C178
:10014000843009F421C18230A9F4923009F01DC134
:100150009A01AD0188E0EA010990AE01E901099236
:100160009E018150C1F7E201898111969C918923FA
:10017000818308C1923009F407C112962D903C90FA
:100180001397EB018A819B811496AD90BD90CD9021
:10019000DC901797EC80FD800E811F819101281B58
:1001A000390BB90137FF04C066277727621B730B31
:1001B000603271050CF061C0121613066CF5370140
:1001C0004801062E04C096948794779467940A9405
:1001D000D2F721E030E040E050E004C0220F331FAE
:1001E000441F551F6A95D2F721503040404050407F
:1001F0002E213F2140235123211531054105510571
:1002000021F021E030E040E050E079018A01E62869
:10021000F728082919293CC0232BD1F1260E371EB7
:1002200035014601062E04C096948794779467940E
:100230000A94D2F721E030E040E050E004C0220F01
:10024000331F441F551F6A95D2F72150304040405C
:1002500050402A213B214C215D21211531054105CA
:10026000510521F021E030E040E050E059016A0101
:10027000A628B728C828D9280BC0821593052CF0CA
:100280001C01AA24BB24650103C0EE24FF248701BE
:1002900011969C91D20111968C91981709F445C042
:1002A000992339F0A80197012A193B094C095D09E6
:1002B00006C0A60195012E193F09400B510B57FDB1
:1002C00008C0118233822282248335834683578378
:1002D0001DC081E081833382228288279927DC0137
:1002E000821B930BA40BB50B84839583A683B783E2
:1002F0000DC0220F331F441F551F248335834683AF
:1003000057838281938101979383828324813581EE
:1003100046815781DA01C9010197A109B1098F5FAF
:100320009F4FAF4FBF4328F30BC09183338222828C
:10033000EA0CFB1C0C1D1D1DE482F582068317834D
:1003400083E08083248135814681578157FF1AC01D
:10035000C901AA2797FDA095BA2F81709070A0704F
:10036000B0705695479537952795822B932BA42BE4
:10037000B52B84839583A683B7838281938101966D
:1003800093838283DF0101C0D201CD01CDB7DEB7F7
:10039000E2E10C94D90FA0E2B0E0E1EDF1E00C94C1
:1003A000C90F69837A838B839C832D833E834F831C
:1003B0005887E9E0EE2EF12CEC0EFD1ECE010196E1
:1003C000B7010E94DC048E010F5E1F4FCE0105961F
:1003D000B8010E94DC048A8991E089278A8BC701D1
:1003E000B801AE01475E5F4F0E947F000E94070484
:1003F000A096E6E00C94E50FA0E2B0E0E2E0F2E0C7
:100400000C94C90F69837A838B839C832D833E83ED
:100410004F835887F9E0EF2EF12CEC0EFD1ECE0134
:100420000196B7010E94DC048E010F5E1F4FCE01C2
:100430000596B8010E94DC04C701B801AE01475E11
:100440005F4F0E947F000E940704A096E6E00C9494
:10045000E50FA0E2B0E0EFE2F2E00C94BD0F69839B
:100460007A838B839C832D833E834F835887CE0171
:100470000196BE01675F7F4F0E94DC04CE010596A6
:10048000BE016F5E7F4F0E94DC049985923088F038
:1004900089898230C8F0943019F4823051F404C054
:1004A000843029F4923081F484E492E0C6C0923022
:1004B00049F420E09A858A89981321E02A87CE01A1
:1004C0000996BBC0823049F420E09A858A89981346
:1004D00021E02A8BCE014196B0C02D843E844F840A
:1004E00058886D887E888F88988CEE24FF24870139
:1004F000AA24BB24650140E050E060E070E0E0E049
:10050000F0E0C10181709070892BE9F0E60CF71CD6
:10051000081D191D9A01AB012A0D3B1D4C1D5D1DC7
:1005200080E090E0A0E0B0E0E614F70408051905CB
:1005300020F481E090E0A0E0B0E0BA01A901480F0A
:10054000591F6A1F7B1FAA0CBB1CCC1CDD1C97FE0D
:1005500008C081E090E0A0E0B0E0A82AB92ACA2A49
:10056000DB2A3196E032F10549F0660C771C881CD5
:10057000991C5694479437942794C3CFFA85EA89F7
:100580002B893C898B859C85280F391F2E5F3F4F17
:1005900017C0CA0181709070892B61F0169507957C
:1005A000F794E79480E090E0A0E0B0E8E82AF92A28
:1005B0000A2B1B2B76956795579547952F5F3F4FD5
:1005C00077FDE7CF0CC0440F551F661F771F17FD3F
:1005D0004160EE0CFF1C001F111F215030404030C5
:1005E00090E0590790E0690790E4790760F32B8F5A
:1005F0003C8FDB01CA018F779070A070B07080349F
:100600009105A105B10561F447FD0AC0E114F104AB
:100610000105110529F0405C5F4F6F4F7F4F407817
:100620001A8EFE1711F081E08A8F4D8F5E8F6F8FCB
:1006300078A383E0898FCE0149960E940704A09693
:10064000E2E10C94D90FA8E1B0E0E9E2F3E00C9408
:10065000C90F69837A838B839C832D833E834F8369
:10066000588789E0E82EF12CEC0EFD1ECE01019694
:10067000B7010E94DC048E010F5E1F4FCE0105966C
:10068000B8010E94DC048985823040F0898982307B
:1006900028F0C701B8010E94540501C08FEF689689
:1006A000E6E00C94E50FA8E1B0E0E9E5F3E00C9496
:1006B000C90F69837A838B839C832D833E834F8309
:1006C000588789E0E82EF12CEC0EFD1ECE01019634
:1006D000B7010E94DC048E010F5E1F4FCE0105960C
:1006E000B8010E94DC048985823040F0898982301B
:1006F00028F0C701B8010E94540501C08FEF689629
:10070000E6E00C94E50FA8E1B0E0E9E8F3E00C9432
:10071000C90F69837A838B839C832D833E834F83A8
:10072000588789E0E82EF12CEC0EFD1ECE010196D3
:10073000B7010E94DC048E010F5E1F4FCE010596AB
:10074000B8010E94DC048985823040F089898230BA
:1007500028F0C701B8010E94540501C081E06896E5
:10076000E6E00C94E50FACE0B0E0E9EBF3E00C94CC
:10077000CD0F69837A838B839C83CE010196BE0162
:100780006B5F7F4F0E94DC048D81823061F182308B
:1007900050F1843021F48E81882351F12EC02F81B5
:1007A000388537FD20C06E812F3131051CF066235E
:1007B000F9F023C08EE190E0821B930B29853A85E6
:1007C0004B855C8504C056954795379527958A9546
:1007D000D2F76623B1F050954095309521953F4F63
:1007E0004F4F5F4F0EC020E030E040E050E009C0C6
:1007F0002FEF3FEF4FEF5FE704C020E030E040E035
:1008000050E8B901CA012C96E2E00C94E90FDF929E
:10081000EF92FF920F931F93FC01E480F580068115
:100820001781D1808081823048F480E090E0A0E19F
:10083000B0E0E82AF92A0A2B1B2BA5C0843009F462
:100840009FC0823021F4EE24FF24870105C0E1140B
:10085000F1040105110519F4E0E0F0E096C06281B1
:1008600073819FEF623879070CF05BC022E83FEF9D
:10087000261B370B2A3131052CF020E030E040E018
:1008800050E02AC0B801A701022E04C076956795F2
:10089000579547950A94D2F781E090E0A0E0B0E048
:1008A00004C0880F991FAA1FBB1F2A95D2F7019772
:1008B000A109B1098E219F21A023B1230097A10591
:1008C000B10521F081E090E0A0E0B0E09A01AB0139
:1008D000282B392B4A2B5B2BDA01C9018F779070BB
:1008E000A070B07080349105A105B10539F427FFDF
:1008F00009C0205C3F4F4F4F5F4F04C0215C3F4F0A
:100900004F4F5F4FE0E0F0E02030A0E03A07A0E07A
:100910004A07A0E45A0710F0E1E0F0E079018A010B
:1009200027C06038710564F5FB01E158FF4FD8011D
:10093000C7018F779070A070B07080349105A105C9
:10094000B10539F4E7FE0DC080E490E0A0E0B0E02E
:1009500004C08FE390E0A0E0B0E0E80EF91E0A1FAB
:100960001B1F17FF05C016950795F794E79431965E
:1009700087E016950795F794E7948A95D1F705C017
:10098000EE24FF248701EFEFF0E06E2F67956627D6
:100990006795902F9F77D794DD24D7948E2F8695D7
:1009A000492F462B582F5D29B701CA011F910F917E
:1009B000FF90EF90DF900895FC01DB0140815181B1
:1009C0002281622F6F7770E0221F2227221F9381DE
:1009D000892F880F822B282F30E0991F9927991F84
:1009E00011969C93119721153105A9F541155105D3
:1009F0006105710511F482E037C082E89FEF13961C
:100A00009C938E9312979A01AB0167E0220F331FDC
:100A1000441F551F6A95D1F783E08C930DC0220FB8
:100A2000331F441F551F12968D919C911397019768
:100A300013969C938E931297203080E0380780E0C5
:100A4000480780E4580758F314962D933D934D932F
:100A50005C93179708952F3F310579F4411551059F
:100A60006105710519F484E08C93089564FF03C057
:100A700081E08C9312C01C9210C02F573040139607
:100A80003C932E93129783E08C9387E0440F551F7D
:100A9000661F771F8A95D1F7706414964D935D9306
:100AA0006D937C93179708951F93DC01FB019C9134
:100AB000923008F447C08081823008F443C09430FB
:100AC00051F411961C91843099F58181682F70E062
:100AD000611B71093FC0843021F0923031F48230C3
:100AE000B9F18181882389F12DC011961C9111974C
:100AF0008230F1F081811817D9F412962D913C9132
:100B00001397828193818217930794F028173907EE
:100B1000BCF014968D919D910D90BC91A02D2481D7
:100B2000358146815781281739074A075B0718F432
:100B3000112341F00AC082179307A407B50740F4B8
:100B4000112319F061E070E005C06FEF7FEF02C084
:100B500060E070E0CB011F910895DF93CF93CDB794
:100B6000DEB7E9EBF0E01082E8EBF0E088E48083A8
:100B7000CF91DF910895DF93CF93CDB7DEB7EAEB46
:100B8000F0E080EA8083ECEBF0E085EC8083CF91AD
:100B9000DF910895DF93CF93CDB7DEB7ECEBF0E0B4
:100BA00084E98083CF91DF910895DF93CF93CDB710
:100BB000DEB7ACEBB0E0ECEBF0E080818B7B8C93AC
:100BC000CF91DF910895DF93CF9300D00F92CDB7EF
:100BD000DEB789836A83ECEBF0E01082ECEBF0E0A7
:100BE00084EA8083ECEBF0E080818823DCF78A8163
:100BF000882361F4E9EBF0E08081882F90E0887F22
:100C000090708830910511F01B8238C08A81813044
:100C100061F4E9EBF0E08081882F90E0887F9070AC
:100C20008031910511F01B8229C0EBEBF0E0898146
:100C30008083ECEBF0E084E88083ECEBF0E08081F3
:100C40008823DCF7E9EBF0E08081882F90E0887F53
:100C500090708831910519F481E08B830FC0E9EB26
:100C6000F0E08081882F90E0887F9070803291053D
:100C700019F482E08B8302C083E08B838B810F9019
:100C80000F900F90CF91DF910895DF93CF9300D015
:100C9000CDB7DEB78983EBEBF0E089818083ECEBA5
:100CA000F0E084E88083ECEBF0E080818823DCF7DF
:100CB000E9EBF0E08081882F90E0887F90708832A7
:100CC000910519F481E08A830FC0E9EBF0E080819F
:100CD000882F90E0887F90708032910519F482E02F
:100CE0008A8302C083E08A838A810F900F90CF911C
:100CF000DF910895DF93CF9300D000D0CDB7DEB75A
:100D000089836A835C834B838A81882329F4EBEB94
:100D1000F0E08FEF80830FC0ABEBB0E08A81282F2B
:100D200030E08B819C81FC01E20FF31F80818C936A
:100D30008A818F5F8A838A818F3F41F0ACEBB0E07C
:100D4000ECEBF0E08081856C8C930EC0ACEBB0E0F6
:100D5000ECEBF0E080818F7B8C93ACEBB0E0ECEBC4
:100D6000F0E0808185688C930F900F900F900F902A
:100D7000CF91DF910895DF93CF93CDB7DEB7ECEB42
:100D8000F0E084EC8083ECEBF0E080818823DCF7FA
:100D9000EBEBF0E08081CF91DF910895DF93CF936B
:100DA000CDB7DEB7ECEBF0E084E88083ECEBF0E06D
:100DB00080818823DCF7EBEBF0E08081CF91DF913D
:100DC0000895DF93CF9300D000D0CDB7DEB78983ED
:100DD0006A835C834B838A818F3FA9F08A81282FA5
:100DE00030E08B819C81FC01E20FF31F89818083BD
:100DF0008A818F5F8A83ACEBB0E0ECEBF0E080811E
:100E0000856C8C9312C08A81282F30E08B819C8165
:100E1000FC01E20FF31F898180831A82ACEBB0E002
:100E2000ECEBF0E08081856C8C930F900F900F902D
:100E30000F90CF91DF910895DF93CF93CDB7DEB7B9
:100E400061970FB6F894DEBF0FBECDBF998B888B2C
:100E500080EA60E00E94E30588899989892F9927B3
:100E60008F878F850E9445060E94CA0580E090E02A
:100E7000A0EAB0E48B879C87AD87BE876B857C85B5
:100E80008D859E8520E030E04AE755E40E942902E6
:100E9000DC01CB018F839887A987BA876F8178851A
:100EA00089859A8520E030E040E85FE30E94830373
:100EB00088232CF481E090E09E838D833FC06F8176
:100EC000788589859A8520E03FEF4FE757E40E94B7
:100ED000230318164CF56B857C858D859E8520E057
:100EE00030E040E251E40E942902DC01CB01BC0168
:100EF000CD010E945300DC01CB019E838D830FC086
:100F000080E991E09C838B838B819C810197F1F731
:100F10009C838B838D819E8101979E838D838D81A0
:100F20009E81009769F714C06F81788589859A85BD
:100F30000E945300DC01CB019E838D838D819E81B5
:100F40009A83898389819A810197F1F79A838983AA
:100F500080EA60E00E94E30588898F878F850E9480
:100F600045060E94CA0561960FB6F894DEBF0FBE13
:100F7000CDBFCF91DF910895DF93CF9300D00F9233
:100F8000CDB7DEB789837B836A83E0ECF0E08081B4
:100F9000882F90E0807290700097B9F3E6ECF0E053
:100FA0008981808380E090E00F900F900F90CF9127
:100FB000DF910895DF93CF93CDB7DEB78CE492E055
:100FC0009093630480936204CF91DF910895DF933F
:100FD000CF93CDB7DEB72B970FB6F894DEBF0FBE19
:100FE000CDBF998788877B876A878A859B859F8302
:100FF0008E838885998501979C838B8339C087E090
:1010000090E09A8389832BC02B813C818E819F81C4
:10101000FC01E20FF31F8081882F90E0098002C05D
:10102000959587950A94E2F781708D838D81282F9D
:1010300030E000D000D0EDB7FEB7319680E492E00A
:1010400091838083338322830E94F40F0F900F904B
:101050000F900F9089819A8101979A838983898162
:101060009A8199238CF68B819C8101979C838B8339
:101070008B819C8199231CF683E492E00E940910E5
:101080002B960FB6F894DEBF0FBECDBFCF91DF9188
:101090000895DF93CF930F92CDB7DEB7898389810F
:1010A000803921F4EBE2F0E010820EC089818F3F9D
:1010B00029F4EBE2F0E08CEF808304C0EBE2F0E097
:1010C0008981808310925A030F90CF91DF91089508
:1010D000DF93CF93CDB7DEB7F894E0E8F0E010826D
:1010E000E1E8F0E01082E4E8F0E08CE396EF918331
:1010F0008083EFE6F0E081E08083E1E6F0E01082BB
:101100007894E1E8F0E083E08083CF91DF91089567
:101110001F920F920FB60F9211242F938F939F93CC
:10112000EF93FF93DF93CF93CDB7DEB7E4E8F0E022
:101130008CE396EF9183808380915A0290915B02B9
:101140002FEF8F3F9207A1F080915A0290915B029E
:10115000019690935B0280935A02809159048823F0
:1011600021F481E08093590407C01092590404C00F
:1011700010925B0210925A02CF91DF91FF91EF9192
:101180009F918F912F910F900FBE0F901F901895E8
:101190001F920F920FB60F9211242F933F934F93EC
:1011A0005F936F937F938F939F93AF93BF93EF93CF
:1011B000FF93DF93CF9300D00F92CDB7DEB71B82A2
:1011C0000E946709898365C0E9EBF0E08081882F80
:1011D00090E0887F90708036910551F0E9EBF0E067
:1011E0008081882F90E0887F90708836910541F447
:1011F000ACEBB0E0ECEBF0E08081856C8C9348C008
:10120000E9EBF0E08081882F90E0887F9070883A49
:10121000910551F0E9EBF0E08081882F90E0887F24
:1012200090708836910571F4EBEBF0E080818A8351
:1012300090915C042CE532E08A81692FA9010E941B
:101240007A0626C0E9EBF0E08081882F90E0887F65
:10125000907080389105A9F4EBEBF0E080818A83EF
:1012600090915D042CE532E08A81692FA9010E94EA
:10127000E10680915A03813059F48A810E9449081D
:1012800007C0ACEBB0E0ECEBF0E0808185648C93C0
:1012900019828981882309F097CFCE0103960E9495
:1012A00070090F900F900F90CF91DF91FF91EF9108
:1012B000BF91AF919F918F917F916F915F914F916E
:1012C0003F912F910F900FBE0F901F901895DF93B5
:1012D000CF93CDB7DEB7F89481E0CF91DF91089539
:1012E000DF93CF9300D0CDB7DEB79A83898378940C
:1012F0000F900F90CF91DF9108950F931F93DF937D
:10130000CF93CDB7DEB7CA53D1400FB6F894DEBF46
:101310000FBECDBF0E94440C882339F40E94ED0B10
:101320000E940A0C882309F4F0C0E4E2F0E080E2B5
:101330008083E5E2F0E080E2808380E090E0AAE74D
:10134000B4E48DAB9EABAFABB8AF6DA97EA98FA94E
:1013500098AD20E030E04AE755E40E942902DC0124
:10136000CB0189AB9AABABABBCAB69A97AA98BA912
:101370009CA920E030E040E85FE30E9483038823DB
:101380002CF481E090E098AB8FA73FC069A97AA9BF
:101390008BA99CA920E03FEF4FE757E40E9423036D
:1013A00018164CF56DA97EA98FA998AD20E030E004
:1013B00040E251E40E942902DC01CB01BC01CD01D5
:1013C0000E945300DC01CB0198AB8FA70FC080E9CE
:1013D00091E09EA78DA78DA59EA50197F1F79EA7E9
:1013E0008DA78FA598A9019798AB8FA78FA598A9CE
:1013F000009769F714C069A97AA98BA99CA90E94D2
:101400005300DC01CB0198AB8FA78FA598A99CA7AF
:101410008BA78BA59CA50197F1F79CA78BA7E5E26D
:10142000F0E0108280E090E0AAE7B4E48FA398A7F0
:10143000A9A7BAA76FA178A589A59AA520E030E051
:101440004AE755E40E942902DC01CB018BA39CA34F
:10145000ADA3BEA36BA17CA18DA19EA120E030E035
:1014600040E85FE30E94830388232CF481E090E04E
:101470009AA389A33FC06BA17CA18DA19EA120E06E
:101480003FEF4FE757E40E94230318164CF56FA176
:1014900078A589A59AA520E030E040E251E40E94B9
:1014A0002902DC01CB01BC01CD010E945300DC010B
:1014B000CB019AA389A30FC080E991E098A38F8FF5
:1014C0008F8D98A10197F1F798A38F8F89A19AA189
:1014D00001979AA389A389A19AA1009769F729CFB7
:1014E0006BA17CA18DA19EA10E945300DC01CB01C8
:1014F0009AA389A389A19AA19E8F8D8F8D8D9E8D90
:101500000197F1F79E8F8D8F14CF80E090E0AAEFC6
:10151000B3E4898F9A8FAB8FBC8F698D7A8D8B8D59
:101520009C8D20E030E04AE755E40E942902DC016E
:10153000CB018D8B9E8BAF8BB88F6D897E898F8908
:10154000988D20E030E040E85FE30E948303882329
:101550002CF481E090E09C8B8B8B3FC06D897E8961
:101560008F89988D20E03FEF4FE757E40E942303D7
:1015700018164CF5698D7A8D8B8D9C8D20E030E0AE
:1015800040E251E40E942902DC01CB01BC01CD0103
:101590000E945300DC01CB019C8B8B8B0FC080E938
:1015A00091E09A8B898B89899A890197F1F79A8BB7
:1015B000898B8B899C8901979C8B8B8B8B899C89D0
:1015C000009769F714C06D897E898F89988D0E9474
:1015D0005300DC01CB019C8B8B8B8B899C89988B76
:1015E0008F878F8598890197F1F7988B8F870E9455
:1015F000440F0E94BB050E94FB0E0E9468081CAEAF
:101600001BAE81E08AAF10925D04EAE2F0E08FEF5A
:101610008083EBE2F0E0108280E090E0AAEFB3E498
:101620008B879C87AD87BE876B857C858D859E85E6
:1016300020E030E04AE755E40E942902DC01CB01BA
:101640008F839887A987BA876F81788589859A85DE
:1016500020E030E040E85FE30E94830388232CF41D
:1016600081E090E09E838D833FC06F81788589857E
:101670009A8520E03FEF4FE757E40E9423031816B6
:101680004CF56B857C858D859E8520E030E040E2C1
:1016900051E40E942902DC01CB01BC01CD010E9472
:1016A0005300DC01CB019E838D830FC080E991E064
:1016B0009C838B838B819C810197F1F79C838B8327
:1016C0008D819E8101979E838D838D819E81009760
:1016D00069F714C06F81788589859A850E945300C7
:1016E000DC01CB019E838D838D819E819A838983CA
:1016F00089819A810197F1F79A838983909159049E
:101700008CAD891741F1809159048CAF80E00E9423
:10171000170F8B3A00F180915A038823E1F418C027
:10172000909159048CAD891799F0809159048CAF30
:101730008BAD082F10E080E00E94170F282FCE01FC
:10174000CD96FC01E00FF11F20838BAD8F5F8BAF37
:101750008BAD8F3F29F78BAD8F3F81F619AE0EC051
:1017600089AD282F30E0CE01CD96FC01E20FF31FAA
:1017700080810E94680F89AD8F5F89AF89AD8F3FEF
:1017800079F781E080935A031BAE8AAD8F5F8AAFF1
:10179000B5CFDF93CF930F92CDB7DEB78EE594E050
:1017A0000E941B128A3A41F08EE594E06AEA0E9498
:1017B000231281E0898301C0198289810F90CF9122
:1017C000DF910895DF93CF93CDB7DEB78EE594E038
:1017D0000E941B12CF91DF910895DF93CF93CDB775
:1017E000DEB78FE594E00E941B12CF91DF91089540
:1017F000DF93CF930F92CDB7DEB789838FE594E067
:101800002981222F30E0B9010E9435120F90CF912B
:10181000DF910895DF93CF93CDB7DEB729970FB649
:10182000F894DEBF0FBECDBF88871F821D821C8249
:1018300013C08C819D819B838A83EA81FB81849183
:10184000898389818E839F818E8189278F838C8173
:101850009D8101969D838C838C819D8128E08C37AE
:10186000920738F39F818885981711F4198602C072
:1018700081E08987898529960FB6F894DEBF0FBE6F
:10188000CDBFCF91DF910895DF93CF9300D0CDB737
:10189000DEB719820CC00E94610C882329F089816F
:1018A000982F9F5F9A8307C089818F5F8983898181
:1018B000883088F31A828A810F900F90CF91DF9140
:1018C0000895DF93CF9300D00F92CDB7DEB7198282
:1018D00080915A04282F30E03B832A834A815B8120
:1018E0004630510509F454C08A819B8187309105A7
:1018F0005CF42A813B812115310591F04A815B819D
:1019000041305105C1F022C08A819B818730910509
:1019100009F43EC02A813B8128303105C9F116C047
:1019200020E031E080E091E0B90140E451E00E9424
:10193000DA0C89832DC020E031E080E092E0B9012B
:1019400040E051E00E94DA0C898322C080915A0461
:10195000882F90E0880F991F880F991F9095819587
:101960009F4F9C012F5F3F4F80EC9FEFAC01249F66
:10197000C001259F900D349F900D112480509F4FE2
:1019800020E031E0B90140E451E00E94DA0C8983A3
:1019900080915A048F5F80935A0480915A04883052
:1019A00010F010925A0489810F900F900F90CF91F0
:1019B000DF910895DF93CF93CDB7DEB72C970FB6A5
:1019C000F894DEBF0FBECDBF98878F837A87698773
:1019D0005C874B871D821C821B8229853A858F81FB
:1019E000988528173907E9F01A82198213C089816E
:1019F0009A81A985BA85A80FB91F89819A81EF813B
:101A0000F885E80FF91F80818C9389819A8101966E
:101A10009A83898389819A812B853C8582179307D4
:101A200030F31D821C820DC0EF81F8858C819D8171
:101A3000E80FF91F10822C813D812F5F3F4F3D83BE
:101A40002C838C819D812B853C858217930760F3C5
:101A50001D821C8243C0EF81F8858C819D81E80F37
:101A6000F91F8081882321F09B819F5F9B8308C0A1
:101A7000EF81F8852C813D81E20FF31F8FEF80838A
:101A8000EF81F8858C819D81E80FF91F80818F3F60
:101A900021F09B819F5F9B8307C0EF81F8852C819C
:101AA0003D81E20FF31F1082EF81F8858C819D81CB
:101AB000E80FF91F8081882321F09B819F5F9B8322
:101AC00008C0EF81F8852C813D81E20FF31F8FEF75
:101AD00080838C819D8101969D838C832C813D81A7
:101AE0008B859C852817390708F4B5CF1D821C8289
:101AF00021C0EF81F8852C813D81E20FF31F8081A9
:101B00008F3F21F03B813F5F3B830FC0EF81F88522
:101B10008C819D81E80FF91F1082EF81F8852C815F
:101B20003D81E20FF31F8FEF80838C819D810196B1
:101B30009D838C832C813D818B859C85281739075B
:101B4000C0F22B853C85215030403D832C8328C03A
:101B5000EF81F8858C819D81E80FF91F80818F3F8F
:101B600021F09B819F5F9B8316C0EF81F8852C81BC
:101B70003D81E20FF31F1082EF81F8858C819D81FA
:101B8000E80FF91F8FEF8083EF81F8852C813D816D
:101B9000E20FF31F10828C819D8101979D838C83BE
:101BA0002C813D812115310599F68B859C85019706
:101BB0009D838C8321C0EF81F8852C813D81E20FCC
:101BC000F31F8081882321F03B813F5F3B830FC05F
:101BD000EF81F8858C819D81E80FF91F8FEF80835D
:101BE000EF81F8852C813D81E20FF31F10828C81FB
:101BF0009D8101979D838C832C813D812115310529
:101C0000D1F61D821C820DC0EF81F8858C819D81EB
:101C1000E80FF91F10822C813D812F5F3F4F3D83DC
:101C20002C838C819D812B853C858217930760F3E3
:101C30001D821C821AC0EF81F8858C819D81E80F7E
:101C4000F91F8081882321F09B819F5F9B8308C0BF
:101C5000EF81F8852C813D81E20FF31F8FEF8083A8
:101C60008C819D8101969D838C832C813D818B8508
:101C70009C8528173907F8F21D821C821AC0EF8153
:101C8000F8852C813D81E20FF31F80818F3F21F089
:101C90003B813F5F3B8307C0EF81F8858C819D814D
:101CA000E80FF91F10822C813D812F5F3F4F3D834C
:101CB0002C838C819D812B853C8582179307F8F2BC
:101CC0008B859C8501979D838C831BC0EF81F88554
:101CD0002C813D81E20FF31F8081882321F03B811D
:101CE0003F5F3B8308C0EF81F8858C819D81E80FC1
:101CF000F91F8FEF80832C813D81215030403D833F
:101D00002C838C819D81009709F72B853C85215080
:101D100030403D832C8319C0EF81F8858C819D81F3
:101D2000E80FF91F80818F3F21F09B819F5F9B838C
:101D300007C0EF81F8852C813D81E20FF31F1082EF
:101D40008C819D8101979D838C832C813D81211500
:101D5000310511F78B859C8501979D838C8311C07C
:101D6000EF81F8852C813D81E20FF31F808188236C
:101D700019F03B813F5F3B838C819D8101979D835F
:101D80008C832C813D812115310551F789859A85F8
:101D90002F81388582179307E9F01D821C8213C0BA
:101DA000EF81F8858C819D81E80FF91FA985BA859F
:101DB0002C813D81A20FB31F8C9180838C819D81EA
:101DC00001969D838C832C813D818B859C85281772
:101DD000390730F39B81992319F021E02E8301C04C
:101DE0001E828E812C960FB6F894DEBF0FBECDBF3B
:101DF000CF91DF910895DF93CF93CDB7DEB7ACE7F6
:101E0000B0E0ECE7F0E0808180648C93AEE7B0E076
:101E1000EEE7F0E0808181608C93AAE7B0E0EAE72A
:101E2000F0E0808187688C93CF91DF910895DF93F4
:101E3000CF930F92CDB7DEB78983ACE7B0E0ECE784
:101E4000F0E08081982F907F89818F70892B8C930F
:101E5000AAE7B0E0EAE7F0E0808180648C93EAE7EB
:101E6000F0E08081882F90E0807490700097B9F73F
:101E7000E8E7F0E080819181969587959695879522
:101E80000F90CF91DF910895DF93CF93CDB7DEB759
:101E9000E4E2F0E08CE28083ECE4F0E083E5808330
:101EA000EEE4F0E01082CF91DF910895DF93CF93BD
:101EB000CDB7DEB7E4E2F0E080E18083ECE4F0E06F
:101EC00083EC8083EEE4F0E01082CF91DF910895FF
:101ED000DF93CF930F92CDB7DEB78983EEE4F0E0C6
:101EE00089818083EDE4F0E080818823DCF70F9026
:101EF000CF91DF910895DF93CF93CDB7DEB7EEE4B6
:101F0000F0E08081CF91DF910895DF93CF9300D0EF
:101F100000D0CDB7DEB789836A835C834B838A8127
:101F20008F3F71F08A81282F30E08B819C81FC01EA
:101F3000E20FF31F898180838A818F5F8A8316C0B5
:101F40008B819C81FC01E250FF4F8081882371F4DA
:101F50001A828A81282F30E08B819C81FC01E20F5C
:101F6000F31F898180838A818F5F8A830F900F900E
:101F70000F900F90CF91DF9108952F923F924F9243
:101F80005F926F927F928F929F92AF92BF92CF9209
:101F9000DF92EF92FF920F931F93CF93DF93CDB712
:101FA000DEB7CA1BDB0B0FB6F894DEBF0FBECDBF8A
:101FB00009942A88398848885F846E847D848C845B
:101FC0009B84AA84B984C884DF80EE80FD800C8164
:101FD0001B81AA81B981CE0FD11D0FB6F894DEBF47
:101FE0000FBECDBFED010895A0E0B0E0EAEFFFE045
:101FF0000C94CD0FFE013596619171918091620430
:1020000090916304AF010E943E102096E2E00C9490
:10201000E90F0F931F93CF93DF938C01E09162043C
:10202000F0916304838181FF21C0C0E0D0E00DC046
:10203000E0916204F091630420853185BF01F901CC
:102040000995892B11F0CFEFDFEFF80181918F0116
:10205000882371F7E0916204F09163042085318553
:102060008AE0BF01F9010995892B11F0CFEFDFEF6D
:10207000CE01DF91CF911F910F910895ABE0B0E0B9
:10208000E4E4F0E10C94BD0F3C012B015A01FC018A
:1020900017821682838181FD03C06FEF7FEFC6C177
:1020A0009AE0892E1E010894211C311CF301238122
:1020B000F20123FD859123FF81912F01882309F4EB
:1020C000B2C1853239F423FD859123FF81912F011F
:1020D000853229F490E0B3010E945112E7CF982F86
:1020E000FF24EE249924FFE1FF15D0F09B3269F024
:1020F0009C3228F4903259F0933291F40EC09D3204
:1021000049F0903369F441E024C052E0F52A84E0BC
:10211000F82A28C098E0F92A25C0E0E1FE2A22C06A
:10212000F7FC29C0892F80538A3070F4F6FE05C071
:10213000989C902C1124980E15C0E89CE02C11243A
:10214000E80EF0E2FF2A0EC09E3229F4F6FC6BC1C5
:1021500040E4F42A07C09C3619F450E8F52A02C07E
:10216000983649F4F20123FD959123FF91912F01B7
:10217000992309F0B8CF892F8554833018F0805205
:10218000833038F444E050E0A40EB51E5FE3598379
:102190000FC0933631F0933779F0933509F056C07C
:1021A00020C0F5018081898342E050E0A40EB51E75
:1021B000610101E010E012C0F501C080D180F6FCA1
:1021C00003C06FEF7FEF02C0692D70E042E050E086
:1021D000A40EB51EC6010E9446128C015FE7F522CF
:1021E00014C0F501C080D180F6FC03C06FEF7FEF13
:1021F00002C0692D70E042E050E0A40EB51EC60199
:102200000E943B128C0150E8F52AF3FE07C01AC069
:1022100080E290E0B3010E945112EA948E2D90E08A
:1022200008171907A8F30EC0F601F7FC8591F7FE11
:1022300081916F0190E0B3010E945112E110EA9484
:10224000015010400115110579F7EAC0943611F0DC
:10225000993669F5F7FE08C0F50120813181428188
:10226000538184E090E00AC0F501808191819C0156
:10227000442737FD4095542F82E090E0A80EB91E08
:102280009FE6F92257FF09C050954095309521955A
:102290003F4F4F4F5F4FE0E8FE2ACA01B901A1014D
:1022A0002AE030E00E947D12D82ED21840C0953727
:1022B00029F41F2D1F7E2AE030E01DC01F2D197F3D
:1022C0009F3661F0903720F4983509F0ACC00FC00C
:1022D000903739F0983709F0A6C004C028E030E004
:1022E0000AC0106114FD146020E130E004C014FD48
:1022F000166020E132E017FF08C0F50160817181AE
:102300008281938144E050E008C0F5018081918191
:10231000BC0180E090E042E050E0A40EB51EA101B7
:102320000E947D12D82ED2188FE7F82EF122F6FEE9
:102330000BC05EEFF522D91438F4F4FE07C0F2FCAE
:1023400005C08FEEF82202C01D2D01C0192DF4FE2C
:102350000DC0FE01ED0DF11D8081803319F499EE61
:10236000F92208C01F5FF2FE05C003C08F2D8678DA
:1023700009F01F5F0F2DF3FC14C0F0FE0FC01E15F7
:1023800010F09D2C0BC09D2C9E0C911A1E2D06C08A
:1023900080E290E0B3010E9451121F5F1E15C0F34E
:1023A00004C01E1510F4E11A01C0EE2404FF0FC092
:1023B00080E390E0B3010E94511202FF1DC001FDB5
:1023C00003C088E790E00EC088E590E00BC0802F46
:1023D000867891F001FF02C08BE201C080E2F7FC39
:1023E0008DE290E0B3010E94511206C080E390E0BC
:1023F000B3010E9451129A94D914C0F3DA94F101F6
:10240000ED0DF11D808190E0B3010E945112DD209D
:10241000A9F706C080E290E0B3010E945112EA944D
:10242000EE20C1F743CEF30166817781CB012B9675
:10243000E2E10C94D90FF999FECF92BD81BDF89AD3
:10244000992780B50895262FF999FECF92BD81BDB9
:10245000F89A019700B4021639F01FBA20BD0FB6E2
:10246000F894FA9AF99A0FBE08950196272F0E94C0
:1024700024120C942312FC0105906150704001104D
:10248000D8F7809590958E0F9F1F0895FC0161509D
:10249000704001900110D8F7809590958E0F9F1F86
:1024A00008950F931F93CF93DF938C01EB018B81E2
:1024B00081FF1BC082FF0DC02E813F818C819D81D9
:1024C0002817390764F4E881F9810193F983E883D7
:1024D00006C0E885F985802F0995892B31F48E8116
:1024E0009F8101969F838E8302C00FEF1FEFC8016B
:1024F000DF91CF911F910F910895FA01AA272830FB
:1025000051F1203181F1E8946F936E7F6E5F7F4FC0
:102510008F4F9F4FAF4FB1E03ED0B4E03CD0670F3C
:10252000781F891F9A1FA11D680F791F8A1F911D8F
:10253000A11D6A0F711D811D911DA11D20D009F4DF
:1025400068943F912AE0269F11243019305D319321
:10255000DEF6CF010895462F4770405D4193B3E00A
:102560000FD0C9F7F6CF462F4F70405D4A3318F0B1
:10257000495D31FD4052419302D0A9F7EACFB4E062
:10258000A6959795879577956795BA95C9F700971A
:102590006105710508959B01AC010A2E06945795BB
:1025A000479537952795BA95C9F7620F731F841F12
:0A25B000951FA01D0895F894FFCFB9
:1025BA002575000000000000000000000000000275
:0A25CA0000000000BC070000000044
:00000001FF
