:100000000C9434000C9451000C9451000C94510049
:100010000C9451000C9451000C9451000C9451001C
:100020000C9451000C9451000C9451000C9451000C
:100030000C9451000C9451000C9451000C945100FC
:100040000C9451000C9468080C9451000C945100CD
:100050000C9451000C9451000C9451000C945100DC
:100060000C9451000C94510011241FBECFEFD8E026
:10007000DEBFCDBF12E0A0E4B2E0E8E6FCE202C0E1
:1000800005900D92AA3EB107D9F714E0AAEEB2E0AE
:1000900001C01D92A53FB107E1F70E949E080C9494
:1000A00032160C940000EF92FF920F931F937B0186
:1000B0008C0120E030E040E05FE40E94530388239D
:1000C0008CF0C801B70120E030E040E05FE40E941E
:1000D000CB010E94B3039B01AC0120503040404053
:1000E000504806C0C801B7010E94B3039B01AC0190
:1000F000B901CA011F910F91FF90EF900895A0E000
:10010000B0E0E5E8F0E00C941413DC012B01FA01F7
:100110009C91923008F439C1EB018881823008F457
:1001200033C1943069F4843009F02FC111969C9149
:1001300011978981981709F428C1A4E4B2E025C178
:10014000843009F421C18230A9F4923009F01DC134
:100150009A01AD0188E0EA010990AE01E901099236
:100160009E018150C1F7E201898111969C918923FA
:10017000818308C1923009F407C112962D903C90FA
:100180001397EB018A819B811496AD90BD90CD9021
:10019000DC901797EC80FD800E811F819101281B58
:1001A000390BB90137FF04C066277727621B730B31
:1001B000603271050CF061C0121613066CF5370140
:1001C0004801062E04C096948794779467940A9405
:1001D000D2F721E030E040E050E004C0220F331FAE
:1001E000441F551F6A95D2F721503040404050407F
:1001F0002E213F2140235123211531054105510571
:1002000021F021E030E040E050E079018A01E62869
:10021000F728082919293CC0232BD1F1260E371EB7
:1002200035014601062E04C096948794779467940E
:100230000A94D2F721E030E040E050E004C0220F01
:10024000331F441F551F6A95D2F72150304040405C
:1002500050402A213B214C215D21211531054105CA
:10026000510521F021E030E040E050E059016A0101
:10027000A628B728C828D9280BC0821593052CF0CA
:100280001C01AA24BB24650103C0EE24FF248701BE
:1002900011969C91D20111968C91981709F445C042
:1002A000992339F0A80197012A193B094C095D09E6
:1002B00006C0A60195012E193F09400B510B57FDB1
:1002C00008C0118233822282248335834683578378
:1002D0001DC081E081833382228288279927DC0137
:1002E000821B930BA40BB50B84839583A683B783E2
:1002F0000DC0220F331F441F551F248335834683AF
:1003000057838281938101979383828324813581EE
:1003100046815781DA01C9010197A109B1098F5FAF
:100320009F4FAF4FBF4328F30BC09183338222828C
:10033000EA0CFB1C0C1D1D1DE482F582068317834D
:1003400083E08083248135814681578157FF1AC01D
:10035000C901AA2797FDA095BA2F81709070A0704F
:10036000B0705695479537952795822B932BA42BE4
:10037000B52B84839583A683B7838281938101966D
:1003800093838283DF0101C0D201CD01CDB7DEB7F7
:10039000E2E10C943013A0E2B0E0E1EDF1E00C9466
:1003A000201369837A838B839C832D833E834F83C1
:1003B0005887E9E0EE2EF12CEC0EFD1ECE010196E1
:1003C000B7010E94DC048E010F5E1F4FCE0105961F
:1003D000B8010E94DC048A8991E089278A8BC701D1
:1003E000B801AE01475E5F4F0E947F000E94070484
:1003F000A096E6E00C943C13A0E2B0E0E2E0F2E06C
:100400000C94201369837A838B839C832D833E8392
:100410004F835887F9E0EF2EF12CEC0EFD1ECE0134
:100420000196B7010E94DC048E010F5E1F4FCE01C2
:100430000596B8010E94DC04C701B801AE01475E11
:100440005F4F0E947F000E940704A096E6E00C9494
:100450003C13A0E2B0E0EFE2F2E00C9414136983E5
:100460007A838B839C832D833E834F835887CE0171
:100470000196BE01675F7F4F0E94DC04CE010596A6
:10048000BE016F5E7F4F0E94DC049985923088F038
:1004900089898230C8F0943019F4823051F404C054
:1004A000843029F4923081F484E492E0C6C0923022
:1004B00049F420E09A858A89981321E02A87CE01A1
:1004C0000996BBC0823049F420E09A858A89981346
:1004D00021E02A8BCE014196B0C02D843E844F840A
:1004E00058886D887E888F88988CEE24FF24870139
:1004F000AA24BB24650140E050E060E070E0E0E049
:10050000F0E0C10181709070892BE9F0E60CF71CD6
:10051000081D191D9A01AB012A0D3B1D4C1D5D1DC7
:1005200080E090E0A0E0B0E0E614F70408051905CB
:1005300020F481E090E0A0E0B0E0BA01A901480F0A
:10054000591F6A1F7B1FAA0CBB1CCC1CDD1C97FE0D
:1005500008C081E090E0A0E0B0E0A82AB92ACA2A49
:10056000DB2A3196E032F10549F0660C771C881CD5
:10057000991C5694479437942794C3CFFA85EA89F7
:100580002B893C898B859C85280F391F2E5F3F4F17
:1005900017C0CA0181709070892B61F0169507957C
:1005A000F794E79480E090E0A0E0B0E8E82AF92A28
:1005B0000A2B1B2B76956795579547952F5F3F4FD5
:1005C00077FDE7CF0CC0440F551F661F771F17FD3F
:1005D0004160EE0CFF1C001F111F215030404030C5
:1005E00090E0590790E0690790E4790760F32B8F5A
:1005F0003C8FDB01CA018F779070A070B07080349F
:100600009105A105B10561F447FD0AC0E114F104AB
:100610000105110529F0405C5F4F6F4F7F4F407817
:100620001A8EFE1711F081E08A8F4D8F5E8F6F8FCB
:1006300078A383E0898FCE0149960E940704A09693
:10064000E2E10C943013A8E1B0E0E9E2F3E00C94AD
:10065000201369837A838B839C832D833E834F830E
:10066000588789E0E82EF12CEC0EFD1ECE01019694
:10067000B7010E94DC048E010F5E1F4FCE0105966C
:10068000B8010E94DC048985823040F0898982307B
:1006900028F0C701B8010E94540501C08FEF689689
:1006A000E6E00C943C13A8E1B0E0E9E5F3E00C943B
:1006B000201369837A838B839C832D833E834F83AE
:1006C000588789E0E82EF12CEC0EFD1ECE01019634
:1006D000B7010E94DC048E010F5E1F4FCE0105960C
:1006E000B8010E94DC048985823040F0898982301B
:1006F00028F0C701B8010E94540501C08FEF689629
:10070000E6E00C943C13A8E1B0E0E9E8F3E00C94D7
:10071000201369837A838B839C832D833E834F834D
:10072000588789E0E82EF12CEC0EFD1ECE010196D3
:10073000B7010E94DC048E010F5E1F4FCE010596AB
:10074000B8010E94DC048985823040F089898230BA
:1007500028F0C701B8010E94540501C081E06896E5
:10076000E6E00C943C13ACE0B0E0E9EBF3E00C9471
:10077000241369837A838B839C83CE010196BE0107
:100780006B5F7F4F0E94DC048D81823061F182308B
:1007900050F1843021F48E81882351F12EC02F81B5
:1007A000388537FD20C06E812F3131051CF066235E
:1007B000F9F023C08EE190E0821B930B29853A85E6
:1007C0004B855C8504C056954795379527958A9546
:1007D000D2F76623B1F050954095309521953F4F63
:1007E0004F4F5F4F0EC020E030E040E050E009C0C6
:1007F0002FEF3FEF4FEF5FE704C020E030E040E035
:1008000050E8B901CA012C96E2E00C944013DF9243
:10081000EF92FF920F931F93FC01E480F580068115
:100820001781D1808081823048F480E090E0A0E19F
:10083000B0E0E82AF92A0A2B1B2BA5C0843009F462
:100840009FC0823021F4EE24FF24870105C0E1140B
:10085000F1040105110519F4E0E0F0E096C06281B1
:1008600073819FEF623879070CF05BC022E83FEF9D
:10087000261B370B2A3131052CF020E030E040E018
:1008800050E02AC0B801A701022E04C076956795F2
:10089000579547950A94D2F781E090E0A0E0B0E048
:1008A00004C0880F991FAA1FBB1F2A95D2F7019772
:1008B000A109B1098E219F21A023B1230097A10591
:1008C000B10521F081E090E0A0E0B0E09A01AB0139
:1008D000282B392B4A2B5B2BDA01C9018F779070BB
:1008E000A070B07080349105A105B10539F427FFDF
:1008F00009C0205C3F4F4F4F5F4F04C0215C3F4F0A
:100900004F4F5F4FE0E0F0E02030A0E03A07A0E07A
:100910004A07A0E45A0710F0E1E0F0E079018A010B
:1009200027C06038710564F5FB01E158FF4FD8011D
:10093000C7018F779070A070B07080349105A105C9
:10094000B10539F4E7FE0DC080E490E0A0E0B0E02E
:1009500004C08FE390E0A0E0B0E0E80EF91E0A1FAB
:100960001B1F17FF05C016950795F794E79431965E
:1009700087E016950795F794E7948A95D1F705C017
:10098000EE24FF248701EFEFF0E06E2F67956627D6
:100990006795902F9F77D794DD24D7948E2F8695D7
:1009A000492F462B582F5D29B701CA011F910F917E
:1009B000FF90EF90DF900895FC01DB0140815181B1
:1009C0002281622F6F7770E0221F2227221F9381DE
:1009D000892F880F822B282F30E0991F9927991F84
:1009E00011969C93119721153105A9F541155105D3
:1009F0006105710511F482E037C082E89FEF13961C
:100A00009C938E9312979A01AB0167E0220F331FDC
:100A1000441F551F6A95D1F783E08C930DC0220FB8
:100A2000331F441F551F12968D919C911397019768
:100A300013969C938E931297203080E0380780E0C5
:100A4000480780E4580758F314962D933D934D932F
:100A50005C93179708952F3F310579F4411551059F
:100A60006105710519F484E08C93089564FF03C057
:100A700081E08C9312C01C9210C02F573040139607
:100A80003C932E93129783E08C9387E0440F551F7D
:100A9000661F771F8A95D1F7706414964D935D9306
:100AA0006D937C93179708951F93DC01FB019C9134
:100AB000923008F447C08081823008F443C09430FB
:100AC00051F411961C91843099F58181682F70E062
:100AD000611B71093FC0843021F0923031F48230C3
:100AE000B9F18181882389F12DC011961C9111974C
:100AF0008230F1F081811817D9F412962D913C9132
:100B00001397828193818217930794F028173907EE
:100B1000BCF014968D919D910D90BC91A02D2481D7
:100B2000358146815781281739074A075B0718F432
:100B3000112341F00AC082179307A407B50740F4B8
:100B4000112319F061E070E005C06FEF7FEF02C084
:100B500060E070E0CB011F910895DF93CF93CDB794
:100B6000DEB7E9EBF0E01082E8EBF0E088E48083A8
:100B7000CF91DF910895DF93CF93CDB7DEB7EAEB46
:100B8000F0E080EA8083ECEBF0E085EC8083CF91AD
:100B9000DF910895DF93CF93CDB7DEB7ECEBF0E0B4
:100BA00084E98083CF91DF910895DF93CF93CDB710
:100BB000DEB7ACEBB0E0ECEBF0E080818B7B8C93AC
:100BC000CF91DF910895DF93CF9300D00F92CDB7EF
:100BD000DEB789836A83ECEBF0E01082ECEBF0E0A7
:100BE00084EA8083ECEBF0E080818823DCF78A8163
:100BF000882361F4E9EBF0E08081882F90E0887F22
:100C000090708830910511F01B8238C08A81813044
:100C100061F4E9EBF0E08081882F90E0887F9070AC
:100C20008031910511F01B8229C0EBEBF0E0898146
:100C30008083ECEBF0E084E88083ECEBF0E08081F3
:100C40008823DCF7E9EBF0E08081882F90E0887F53
:100C500090708831910519F481E08B830FC0E9EB26
:100C6000F0E08081882F90E0887F9070803291053D
:100C700019F482E08B8302C083E08B838B810F9019
:100C80000F900F90CF91DF910895DF93CF9300D015
:100C9000CDB7DEB78983EBEBF0E089818083ECEBA5
:100CA000F0E084E88083ECEBF0E080818823DCF7DF
:100CB000E9EBF0E08081882F90E0887F90708832A7
:100CC000910519F481E08A830FC0E9EBF0E080819F
:100CD000882F90E0887F90708032910519F482E02F
:100CE0008A8302C083E08A838A810F900F90CF911C
:100CF000DF910895DF93CF9300D000D0CDB7DEB75A
:100D000089836A835C834B838A81882329F4EBEB94
:100D1000F0E08FEF80830FC0ABEBB0E08A81282F2B
:100D200030E08B819C81FC01E20FF31F80818C936A
:100D30008A818F5F8A838A818F3F41F0ACEBB0E07C
:100D4000ECEBF0E08081856C8C930EC0ACEBB0E0F6
:100D5000ECEBF0E080818F7B8C93ACEBB0E0ECEBC4
:100D6000F0E0808185688C930F900F900F900F902A
:100D7000CF91DF910895DF93CF93CDB7DEB7ECEB42
:100D8000F0E084EC8083ECEBF0E080818823DCF7FA
:100D9000EBEBF0E08081CF91DF910895DF93CF936B
:100DA000CDB7DEB7ECEBF0E084E88083ECEBF0E06D
:100DB00080818823DCF7EBEBF0E08081CF91DF913D
:100DC0000895DF93CF9300D000D0CDB7DEB78983ED
:100DD0006A835C834B838A818F3FA9F08A81282FA5
:100DE00030E08B819C81FC01E20FF31F89818083BD
:100DF0008A818F5F8A83ACEBB0E0ECEBF0E080811E
:100E0000856C8C9312C08A81282F30E08B819C8165
:100E1000FC01E20FF31F898180831A82ACEBB0E002
:100E2000ECEBF0E08081856C8C930F900F900F902D
:100E30000F90CF91DF910895DF93CF93CDB7DEB7B9
:100E400061970FB6F894DEBF0FBECDBF998B888B2C
:100E500080EA60E00E94E30588899989892F9927B3
:100E60008F878F850E9445060E94CA0580E090E02A
:100E7000A0EAB0E48B879C87AD87BE876B857C85B5
:100E80008D859E8520E030E04AE755E40E942902E6
:100E9000DC01CB018F839887A987BA876F8178851A
:100EA00089859A8520E030E040E85FE30E94830373
:100EB00088232CF481E090E09E838D833FC06F8176
:100EC000788589859A8520E03FEF4FE757E40E94B7
:100ED000230318164CF56B857C858D859E8520E057
:100EE00030E040E251E40E942902DC01CB01BC0168
:100EF000CD010E945300DC01CB019E838D830FC086
:100F000080E991E09C838B838B819C810197F1F731
:100F10009C838B838D819E8101979E838D838D81A0
:100F20009E81009769F714C06F81788589859A85BD
:100F30000E945300DC01CB019E838D838D819E81B5
:100F40009A83898389819A810197F1F79A838983AA
:100F500080EA60E00E94E30588898F878F850E9480
:100F600045060E94CA0561960FB6F894DEBF0FBE13
:100F7000CDBFCF91DF910895DF93CF9300D00F9233
:100F8000CDB7DEB789837B836A83E0ECF0E08081B4
:100F9000882F90E0807290700097B9F3E6ECF0E053
:100FA0008981808380E090E00F900F900F90CF9127
:100FB000DF910895DF93CF93CDB7DEB78CE492E055
:100FC0009093F2048093F104CF91DF910895DF9321
:100FD000CF93CDB7DEB72B970FB6F894DEBF0FBE19
:100FE000CDBF998788877B876A878A859B859F8302
:100FF0008E838885998501979C838B8339C087E090
:1010000090E09A8389832BC02B813C818E819F81C4
:10101000FC01E20FF31F8081882F90E0098002C05D
:10102000959587950A94E2F781708D838D81282F9D
:1010300030E000D000D0EDB7FEB7319680E492E00A
:1010400091838083338322830E944B130F900F90F0
:101050000F900F9089819A8101979A838983898162
:101060009A8199238CF68B819C8101979C838B8339
:101070008B819C8199231CF683E492E00E9460138B
:101080002B960FB6F894DEBF0FBECDBFCF91DF9188
:101090000895DF93CF930F92CDB7DEB7898389810F
:1010A000803921F4EBE2F0E010820EC089818F3F9D
:1010B00029F4EBE2F0E08CEF808304C0EBE2F0E097
:1010C000898180831092EA030F90CF91DF91089578
:1010D0001F920F920FB60F9211242F933F934F93AD
:1010E0005F936F937F938F939F93AF93BF93EF9390
:1010F000FF93DF93CF930F92CDB7DEB70E94AB1271
:1011000089839091EA042BEE33E08981692FA9014C
:101110000E94B5120F90CF91DF91FF91EF91BF9197
:10112000AF919F918F917F916F915F914F913F917F
:101130002F910F900FBE0F901F901895DF93CF93B4
:10114000CDB7DEB7C150D1400FB6F894DEBF0FBEA9
:10115000CDBF0E94740F882339F40E941D0F0E9496
:101160003A0F882309F4F0C0E4E2F0E080E28083E3
:10117000E5E2F0E080E2808380E090E0AAE7B4E47A
:10118000898F9A8FAB8FBC8F698D7A8D8B8D9C8D5B
:1011900020E030E04AE755E40E942902DC01CB015F
:1011A0008D8B9E8BAF8BB88F6D897E898F89988D43
:1011B00020E030E040E85FE30E94830388232CF4C2
:1011C00081E090E09C8B8B8B3FC06D897E898F89FD
:1011D000988D20E03FEF4FE757E40E942303181655
:1011E0004CF5698D7A8D8B8D9C8D20E030E040E24E
:1011F00051E40E942902DC01CB01BC01CD010E9417
:101200005300DC01CB019C8B8B8B0FC080E991E0FC
:101210009A8B898B89899A890197F1F79A8B898BA7
:101220008B899C8901979C8B8B8B8B899C890097E0
:1012300069F714C06D897E898F89988D0E9453004B
:10124000DC01CB019C8B8B8B8B899C89988B8F8746
:101250008F8598890197F1F7988B8F87E5E2F0E009
:10126000108280E090E0AAE7B4E48B879C87AD878A
:10127000BE876B857C858D859E8520E030E04AE7C2
:1012800055E40E942902DC01CB018F839887A9874E
:10129000BA876F81788589859A8520E030E040E8BB
:1012A0005FE30E94830388232CF481E090E09E8317
:1012B0008D833FC06F81788589859A8520E03FEFD7
:1012C0004FE757E40E94230318164CF56B857C8585
:1012D0008D859E8520E030E040E251E40E942902A5
:1012E000DC01CB01BC01CD010E945300DC01CB012C
:1012F0009E838D830FC080E991E09C838B838B81DB
:101300009C810197F1F79C838B838D819E8101974E
:101310009E838D838D819E81009769F729CF6F8190
:10132000788589859A850E945300DC01CB019E83D4
:101330008D838D819E819A83898389819A8101978A
:10134000F1F79A83898314CF0E9486120E94AD051B
:1013500078941092EA049E01245C3F4FCC51DF4FF9
:1013600039832883C45ED04082ED92E0CA51DF4FBA
:1013700099838883C65ED04098E1C851DF4F988337
:10138000C85ED040CA51DF4FE881F981C65ED040C7
:101390000080CA51DF4F28813981C65ED0402F5F5F
:1013A0003F4FCA51DF4F39832883C65ED040CC51AE
:1013B000DF4FE881F981C45ED0400082CC51DF4F1D
:1013C00028813981C45ED0402F5F3F4FCC51DF4F21
:1013D00039832883C45ED040C851DF4F3881C85E4E
:1013E000D0403150C851DF4F3883C85ED040C8511B
:1013F000DF4F8881C85ED040882321F6CE018C5A09
:101400009F4FC751DF4F99838883C95ED040EAEB75
:10141000F2E0C551DF4FF983E883CB5ED040F8E1BD
:10142000C351DF4FF883CD5ED040C551DF4FE88117
:10143000F981CB5ED0400080C551DF4F28813981D2
:10144000CB5ED0402F5F3F4FC551DF4F398328839C
:10145000CB5ED040C751DF4FE881F981C95ED040F3
:101460000082C751DF4F28813981C95ED0402F5F8C
:101470003F4FC751DF4F39832883C95ED040C351E6
:10148000DF4F3881CD5ED0403150C351DF4F3883BC
:10149000CD5ED040C351DF4F8881CD5ED0408823E0
:1014A00021F6CE0184599F4FC251DF4F9983888323
:1014B000CE5ED040E2EAF2E0C051DF4FF983E8832C
:1014C000C05FD040F8E1CE50DF4FF883C25FD0401C
:1014D000C051DF4FE881F981C05FD0400080C0512A
:1014E000DF4F28813981C05FD0402F5F3F4FC0510F
:1014F000DF4F39832883C05FD040C251DF4FE8817E
:10150000F981CE5ED0400082C251DF4F28813981FF
:10151000CE5ED0402F5F3F4FC251DF4F39832883CB
:10152000CE5ED040CE50DF4F3881C25FD0403150C8
:10153000CE50DF4F3883C25FD040CE50DF4F88811E
:10154000C25FD040882321F6CE018C579F4FCD50EB
:10155000DF4F99838883C35FD040EAE8F2E0CB5045
:10156000DF4FF983E883C55FD040F8E1C950DF4F12
:10157000F883C75FD040CB50DF4FE881F981C55F6A
:10158000D0400080CB50DF4F28813981C55FD040EB
:101590002F5F3F4FCB50DF4F39832883C55FD0404B
:1015A000CD50DF4FE881F981C35FD0400082CD503C
:1015B000DF4F28813981C35FD0402F5F3F4FCD502F
:1015C000DF4F39832883C35FD040C950DF4F388154
:1015D000C75FD0403150C950DF4F3883C75FD0401C
:1015E000C950DF4F8881C75FD040882321F6CE01E4
:1015F00084569F4FC850DF4F99838883C85FD0407F
:10160000E2E7F2E0C650DF4FF983E883CA5FD040DB
:10161000F8E1C450DF4FF883CC5FD040C650DF4FB5
:10162000E881F981CA5FD0400080C650DF4F288131
:101630003981CA5FD0402F5F3F4FC650DF4F39839B
:101640002883CA5FD040C850DF4FE881F981C85F66
:10165000D0400082C850DF4F28813981C85FD04018
:101660002F5F3F4FC850DF4F39832883C85FD0407A
:10167000C450DF4F3881CC5FD0403150C450DF4F71
:101680003883CC5FD040C450DF4F8881CC5FD040DE
:10169000882321F6CE018C549F4FC350DF4F99838E
:1016A0008883CD5FD040EAE5F2E0C150DF4FF98397
:1016B000E883CF5FD040F8E1CF5FDE4FF883C150C1
:1016C000D140C150DF4FE881F981CF5FD040008029
:1016D000C150DF4F28813981CF5FD0402F5F3F4F0E
:1016E000C150DF4F39832883CF5FD040C350DF4FD5
:1016F000E881F981CD5FD0400082C350DF4F28815F
:101700003981CD5FD0402F5F3F4FC350DF4F3983CA
:101710002883CD5FD040CF5FDE4F3881C150D140AC
:101720003150CF5FDE4F3883C150D140CF5FDE4FA5
:101730008881C150D140882321F687E18AAF1CAA55
:101740001DAA1EAA1FAA18AA19AA1AAA1BAA1CA671
:101750001DA61EA61FA618A619A61AA61BA61CA281
:101760001DA21EA21FA218A219A21AA21BA21F8E9E
:101770000AC08F8D882F90E0FC01E551FC4F10824C
:101780008F8D8F5F8F8F8F8D8F3F99F78091E904B9
:101790008823E1F31E8ED3C18AAD873111F41AAECE
:1017A00003C08AAD8F5F8AAF8AAD482F50E08E8D1F
:1017B000882F90E0FC01E551FC4F8081282FCE015D
:1017C00084539F4FFC01E40FF51F20838E8D882FDB
:1017D00090E0FC01E551FC4F10821CAA1DAA1EAA34
:1017E0001FAA18AA19AA1AAA1BAA1CA61DA61EA6D9
:1017F0001FA618A619A61AA61BA61CA21DA21EA2E9
:101800001FA218A219A21AA21BA218AE48C18AAD23
:10181000282F30E088AD882F90E0820F931F28E1B9
:1018200030E0B9010E94ED1289AF88AD282F30E079
:10183000CE01CC96FC01E20FF31F8081482F552783
:1018400047FD509589AD282F30E0CE0184539F4F3E
:10185000FC01E20FF31F8081992787FD9095FC0121
:101860004E9FC0014F9F900D5E9F900D11249C01D3
:10187000442737FD4095542F8CA99DA9AEA9BFA937
:10188000820F931FA41FB51F8CAB9DABAEABBFAB3C
:1018900088AD282F30E0CE018C5A9F4FFC01E20F1B
:1018A000F31F8081482F552747FD509589AD282F7C
:1018B00030E0CE0184539F4FFC01E20FF31F808183
:1018C000992787FD90959C01429FC001439F900DF1
:1018D000529F900D11249C01442737FD4095542FB1
:1018E00088A999A9AAA9BBA9820F931FA41FB51FF4
:1018F00088AB99ABAAABBBAB88AD282F30E0CE014B
:1019000084599F4FFC01E20FF31F8081482F552718
:1019100047FD509589AD282F30E0CE0184539F4F6D
:10192000FC01E20FF31F8081992787FD9095FC0150
:101930004E9FC0014F9F900D5E9F900D11249C0102
:10194000442737FD4095542F8CA59DA5AEA5BFA576
:10195000820F931FA41FB51F8CA79DA7AEA7BFA77B
:1019600088AD282F30E0CE018C579F4FFC01E20F4D
:10197000F31F8081482F552747FD509589AD282FAB
:1019800030E0CE0184539F4FFC01E20FF31F8081B2
:10199000992787FD90959C01429FC001439F900D20
:1019A000529F900D11249C01442737FD4095542FE0
:1019B00088A599A5AAA5BBA5820F931FA41FB51F33
:1019C00088A799A7AAA7BBA788AD282F30E0CE018A
:1019D00084569F4FFC01E20FF31F8081482F55274B
:1019E00047FD509589AD282F30E0CE0184539F4F9D
:1019F000FC01E20FF31F8081992787FD9095FC0180
:101A00004E9FC0014F9F900D5E9F900D11249C0131
:101A1000442737FD4095542F8CA19DA1AEA1BFA1B5
:101A2000820F931FA41FB51F8CA39DA3AEA3BFA3BA
:101A300088AD282F30E0CE018C549F4FFC01E20F7F
:101A4000F31F8081482F552747FD509589AD282FDA
:101A500030E0CE0184539F4FFC01E20FF31F8081E1
:101A6000992787FD90959C01429FC001439F900D4F
:101A7000529F900D11249C01442737FD4095542F0F
:101A800088A199A1AAA1BBA1820F931FA41FB51F72
:101A900088A399A3AAA3BBA388AD8F5F88AF88ADA5
:101AA000883108F4B4CE8CA99DA9AEA9BFA9813113
:101AB00037E2930730E0A30730E0B3070CF043C0F0
:101AC00088A999A9AAA9BBA98131E7E29E07E0E00C
:101AD000AE07E0E0BE07BCF58CA59DA5AEA5BFA5F1
:101AE0008131F7E29F07F0E0AF07F0E0BF075CF558
:101AF00088A599A5AAA5BBA5813127E2920720E078
:101B0000A20720E0B207FCF48CA19DA1AEA1BFA169
:101B1000813137E2930730E0A30730E0B3079CF44C
:101B200088A199A1AAA1BBA18131E7E29E07E0E0CB
:101B3000AE07E0E0BE073CF48E8D8F5F8E8F8E8DFA
:101B40008F3F09F029CE8CA99DA9AEA9BFA98131EB
:101B5000F7E29F07F0E0AF07F0E0BF070CF446C0E4
:101B60002CA93DA94EA95FA988A999A9AAA9BBA991
:101B700082179307A407B507CCF52CA93DA94EA958
:101B80005FA98CA59DA5AEA5BFA582179307A40745
:101B9000B50764F52CA93DA94EA95FA988A599A50B
:101BA000AAA5BBA582179307A407B507FCF42CA927
:101BB0003DA94EA95FA98CA19DA1AEA1BFA182178D
:101BC0009307A407B50794F42CA93DA94EA95FA9D2
:101BD00088A199A1AAA1BBA182179307A407B50761
:101BE0002CF484E090E90E941C07DBC088A999A925
:101BF000AAA9BBA9813127E2920720E0A20720E031
:101C0000B207CCF128A939A94AA95BA98CA59DA541
:101C1000AEA5BFA582179307A407B50764F528A949
:101C200039A94AA95BA988A599A5AAA5BBA5821728
:101C30009307A407B507FCF428A939A94AA95BA909
:101C40008CA19DA1AEA1BFA182179307A407B507E0
:101C500094F428A939A94AA95BA988A199A1AAA1A4
:101C6000BBA182179307A407B5072CF488E090E97D
:101C70000E941C0796C08CA59DA5AEA5BFA581316D
:101C800037E2930730E0A30730E0B30764F12CA5F7
:101C90003DA54EA55FA588A599A5AAA5BBA58217B8
:101CA0009307A407B507FCF42CA53DA54EA55FA599
:101CB0008CA19DA1AEA1BFA182179307A407B50770
:101CC00094F42CA53DA54EA55FA588A199A1AAA134
:101CD000BBA182179307A407B5072CF480E190E914
:101CE0000E941C075EC088A599A5AAA5BBA5813145
:101CF000E7E29E07E0E0AE07E0E0BE07FCF028A5C3
:101D000039A54AA55BA58CA19DA1AEA1BFA1821753
:101D10009307A407B50794F428A539A54AA55BA5A0
:101D200088A199A1AAA1BBA182179307A407B5070F
:101D30002CF480E290E90E941C0733C08CA19DA185
:101D4000AEA1BFA18131F7E29F07F0E0AF07F0E05D
:101D5000BF0794F02CA13DA14EA15FA188A199A13C
:101D6000AAA1BBA182179307A407B5072CF480E4AE
:101D700090E90E941C0715C088A199A1AAA1BBA146
:101D8000813127E2920720E0A20720E0B2072CF081
:101D900080E890E90E941C0704C08FEF90E90E9440
:101DA0001C071CAA1DAA1EAA1FAA18AA19AA1AAAA9
:101DB0001BAA1CA61DA61EA61FA618A619A61AA613
:101DC0001BA61CA21DA21EA21FA218A219A21AA223
:101DD0001BA21D8E0AC08D8D882F90E0FC01E5515D
:101DE000FC4F10828D8D8F5F8D8F8D8D8F3F99F77A
:101DF000CDCCDF93CF930F92CDB7DEB78DEE94E0CD
:101E00000E9472158A3A41F08DEE94E06AEA0E94CF
:101E10007A1581E0898301C0198289810F90CF9161
:101E2000DF910895DF93CF93CDB7DEB78DEE94E0C9
:101E30000E947215CF91DF910895DF93CF93CDB7B4
:101E4000DEB78EEE94E00E947215CF91DF91089577
:101E5000DF93CF930F92CDB7DEB789838EEE94E0F8
:101E60002981222F30E0B9010E948C150F90CF916B
:101E7000DF910895DF93CF93CDB7DEB729970FB6E3
:101E8000F894DEBF0FBECDBF88871F821D821C82E3
:101E900013C08C819D819B838A83EA81FB8184911D
:101EA000898389818E839F818E8189278F838C810D
:101EB0009D8101969D838C838C819D812DE2823151
:101EC000920738F39F818885981711F4198602C00C
:101ED00081E08987898529960FB6F894DEBF0FBE09
:101EE000CDBFCF91DF910895DF93CF9300D0CDB7D1
:101EF000DEB719820CC00E94910F882329F08981D6
:101F0000982F9F5F9A8307C089818F5F898389811A
:101F1000883088F31A828A810F900F90CF91DF91D9
:101F20000895DF93CF9300D00F92CDB7DEB719821B
:101F30008091E904282F30E03B832A834A815B812A
:101F40004630510509F454C08A819B818730910540
:101F50005CF42A813B812115310591F04A815B8136
:101F600041305105C1F022C08A819B8187309105A3
:101F700009F43EC02A813B8128303105C9F116C0E1
:101F800020E031E080E091E0B90140E451E00E94BE
:101F90000A1089832DC020E031E080E092E0B90191
:101FA00040E051E00E940A10898322C08091E90438
:101FB000882F90E0880F991F880F991F9095819521
:101FC0009F4F9C012F5F3F4F80EC9FEFAC01249F00
:101FD000C001259F900D349F900D112480509F4F7C
:101FE00020E031E0B90140E451E00E940A10898309
:101FF0008091E9048F5F8093E9048091E90488303F
:1020000010F01092E90489810F900F900F90CF91FA
:10201000DF910895DF93CF93CDB7DEB72C970FB63E
:10202000F894DEBF0FBECDBF98878F837A8769870C
:102030005C874B871D821C821B8229853A858F8194
:10204000988528173907E9F01A82198213C0898107
:102050009A81A985BA85A80FB91F89819A81EF81D4
:10206000F885E80FF91F80818C9389819A81019608
:102070009A83898389819A812B853C85821793076E
:1020800030F31D821C820DC0EF81F8858C819D810B
:10209000E80FF91F10822C813D812F5F3F4F3D8358
:1020A0002C838C819D812B853C858217930760F35F
:1020B0001D821C8243C0EF81F8858C819D81E80FD1
:1020C000F91F8081882321F09B819F5F9B8308C03B
:1020D000EF81F8852C813D81E20FF31F8FEF808324
:1020E000EF81F8858C819D81E80FF91F80818F3FFA
:1020F00021F09B819F5F9B8307C0EF81F8852C8136
:102100003D81E20FF31F1082EF81F8858C819D8164
:10211000E80FF91F8081882321F09B819F5F9B83BB
:1021200008C0EF81F8852C813D81E20FF31F8FEF0E
:1021300080838C819D8101969D838C832C813D8140
:102140008B859C852817390708F4B5CF1D821C8222
:1021500021C0EF81F8852C813D81E20FF31F808142
:102160008F3F21F03B813F5F3B830FC0EF81F885BC
:102170008C819D81E80FF91F1082EF81F8852C81F9
:102180003D81E20FF31F8FEF80838C819D8101964B
:102190009D838C832C813D818B859C8528173907F5
:1021A000C0F22B853C85215030403D832C8328C0D4
:1021B000EF81F8858C819D81E80FF91F80818F3F29
:1021C00021F09B819F5F9B8316C0EF81F8852C8156
:1021D0003D81E20FF31F1082EF81F8858C819D8194
:1021E000E80FF91F8FEF8083EF81F8852C813D8107
:1021F000E20FF31F10828C819D8101979D838C8358
:102200002C813D812115310599F68B859C8501979F
:102210009D838C8321C0EF81F8852C813D81E20F65
:10222000F31F8081882321F03B813F5F3B830FC0F8
:10223000EF81F8858C819D81E80FF91F8FEF8083F6
:10224000EF81F8852C813D81E20FF31F10828C8194
:102250009D8101979D838C832C813D8121153105C2
:10226000D1F61D821C820DC0EF81F8858C819D8185
:10227000E80FF91F10822C813D812F5F3F4F3D8376
:102280002C838C819D812B853C858217930760F37D
:102290001D821C821AC0EF81F8858C819D81E80F18
:1022A000F91F8081882321F09B819F5F9B8308C059
:1022B000EF81F8852C813D81E20FF31F8FEF808342
:1022C0008C819D8101969D838C832C813D818B85A2
:1022D0009C8528173907F8F21D821C821AC0EF81ED
:1022E000F8852C813D81E20FF31F80818F3F21F023
:1022F0003B813F5F3B8307C0EF81F8858C819D81E7
:10230000E80FF91F10822C813D812F5F3F4F3D83E5
:102310002C838C819D812B853C8582179307F8F255
:102320008B859C8501979D838C831BC0EF81F885ED
:102330002C813D81E20FF31F8081882321F03B81B6
:102340003F5F3B8308C0EF81F8858C819D81E80F5A
:10235000F91F8FEF80832C813D81215030403D83D8
:102360002C838C819D81009709F72B853C8521501A
:1023700030403D832C8319C0EF81F8858C819D818D
:10238000E80FF91F80818F3F21F09B819F5F9B8326
:1023900007C0EF81F8852C813D81E20FF31F108289
:1023A0008C819D8101979D838C832C813D8121159A
:1023B000310511F78B859C8501979D838C8311C016
:1023C000EF81F8852C813D81E20FF31F8081882306
:1023D00019F03B813F5F3B838C819D8101979D83F9
:1023E0008C832C813D812115310551F789859A8592
:1023F0002F81388582179307E9F01D821C8213C054
:10240000EF81F8858C819D81E80FF91FA985BA8538
:102410002C813D81A20FB31F8C9180838C819D8183
:1024200001969D838C832C813D818B859C8528170B
:10243000390730F39B81992319F021E02E8301C0E5
:102440001E828E812C960FB6F894DEBF0FBECDBFD4
:10245000CF91DF910895DF93CF93CDB7DEB7ACE78F
:10246000B0E0ECE7F0E0808180648C93AEE7B0E010
:10247000EEE7F0E0808181608C93AAE7B0E0EAE7C4
:10248000F0E0808187688C93CF91DF910895DF938E
:10249000CF930F92CDB7DEB78983ACE7B0E0ECE71E
:1024A000F0E08081982F907F89818F70892B8C93A9
:1024B000AAE7B0E0EAE7F0E0808180648C93EAE785
:1024C000F0E08081882F90E0807490700097B9F7D9
:1024D000E8E7F0E0808191819695879596958795BC
:1024E0000F90CF91DF910895DF93CF93CDB7DEB7F3
:1024F000E4E2F0E08CE28083ECE4F0E083E58083CA
:10250000EEE4F0E01082CF91DF910895DF93CF9356
:10251000CDB7DEB7E4E2F0E080E18083ECE4F0E008
:1025200083EC8083EEE4F0E01082CF91DF91089598
:10253000DF93CF930F92CDB7DEB78983EEE4F0E05F
:1025400089818083EDE4F0E080818823DCF70F90BF
:10255000CF91DF910895DF93CF93CDB7DEB7EEE44F
:10256000F0E08081CF91DF910895DF93CF9300D089
:1025700000D0CDB7DEB789836A835C834B838A81C1
:102580008F3F71F08A81282F30E08B819C81FC0184
:10259000E20FF31F898180838A818F5F8A8316C04F
:1025A0008B819C81FC01E250FF4F8081882371F474
:1025B0001A828A81282F30E08B819C81FC01E20FF6
:1025C000F31F898180838A818F5F8A830F900F90A8
:1025D0000F900F90CF91DF91089597FB092E07265A
:1025E0000AD077FD04D00CD006D000201AF47095E4
:1025F00061957F4F0895F6F7909581959F4F0895C7
:10260000AA1BBB1B51E107C0AA1FBB1FA617B70718
:1026100010F0A61BB70B881F991F5A95A9F7809534
:102620009095BC01CD0108952F923F924F925F92F9
:102630006F927F928F929F92AF92BF92CF92DF92D2
:10264000EF92FF920F931F93CF93DF93CDB7DEB737
:10265000CA1BDB0B0FB6F894DEBF0FBECDBF0994CB
:102660002A88398848885F846E847D848C849B8422
:10267000AA84B984C884DF80EE80FD800C811B8130
:10268000AA81B981CE0FD11D0FB6F894DEBF0FBE5F
:10269000CDBFED010895A0E0B0E0E1E5F3E10C94D9
:1026A0002413FE013596619171918091F10490910E
:1026B000F204AF010E9495132096E2E00C944013BF
:1026C0000F931F93CF93DF938C01E091F104F0916E
:1026D000F204838181FF21C0C0E0D0E00DC0E09111
:1026E000F104F091F20420853185BF01F9010995CB
:1026F000892B11F0CFEFDFEFF80181918F01882353
:1027000071F7E091F104F091F204208531858AE0BF
:10271000BF01F9010995892B11F0CFEFDFEFCE0151
:10272000DF91CF911F910F910895ABE0B0E0EBE9FD
:10273000F3E10C9414133C012B015A01FC011782A4
:102740001682838181FD03C06FEF7FEFC6C19AE0DF
:10275000892E1E010894211C311CF3012381F201F2
:1027600023FD859123FF81912F01882309F4B2C1B4
:10277000853239F423FD859123FF81912F01853224
:1027800029F490E0B3010E94A815E7CF982FFF2409
:10279000EE249924FFE1FF15D0F09B3269F09C32C2
:1027A00028F4903259F0933291F40EC09D3249F0E2
:1027B000903369F441E024C052E0F52A84E0F82A1D
:1027C00028C098E0F92A25C0E0E1FE2A22C0F7FCE3
:1027D00029C0892F80538A3070F4F6FE05C0989C7A
:1027E000902C1124980E15C0E89CE02C1124E80EC2
:1027F000F0E2FF2A0EC09E3229F4F6FC6BC140E4E1
:10280000F42A07C09C3619F450E8F52A02C098361D
:1028100049F4F20123FD959123FF91912F01992312
:1028200009F0B8CF892F8554833018F08052833057
:1028300038F444E050E0A40EB51E5FE359830FC0A6
:10284000933631F0933779F0933509F056C020C0B4
:10285000F5018081898342E050E0A40EB51E61013C
:1028600001E010E012C0F501C080D180F6FC03C089
:102870006FEF7FEF02C0692D70E042E050E0A40EE0
:10288000B51EC6010E949D158C015FE7F52214C09C
:10289000F501C080D180F6FC03C06FEF7FEF02C06E
:1028A000692D70E042E050E0A40EB51EC6010E9402
:1028B00092158C0150E8F52AF3FE07C01AC080E299
:1028C00090E0B3010E94A815EA948E2D90E00817BD
:1028D0001907A8F30EC0F601F7FC8591F7FE819168
:1028E0006F0190E0B3010E94A815E110EA94015035
:1028F00010400115110579F7EAC0943611F09936A8
:1029000069F5F7FE08C0F5012081318142815381CC
:1029100084E090E00AC0F501808191819C01442708
:1029200037FD4095542F82E090E0A80EB91E9FE637
:10293000F92257FF09C050954095309521953F4F9A
:102940004F4F5F4FE0E8FE2ACA01B901A1012AE01A
:1029500030E00E94D415D82ED21840C0953729F403
:102960001F2D1F7E2AE030E01DC01F2D197F9F36CE
:1029700061F0903720F4983509F0ACC00FC0903763
:1029800039F0983709F0A6C004C028E030E00AC04A
:10299000106114FD146020E130E004C014FD1660E5
:1029A00020E132E017FF08C0F5016081718182816A
:1029B000938144E050E008C0F50180819181BC0121
:1029C00080E090E042E050E0A40EB51EA1010E941C
:1029D000D415D82ED2188FE7F82EF122F6FE0BC0B0
:1029E0005EEFF522D91438F4F4FE07C0F2FC05C0FE
:1029F0008FEEF82202C01D2D01C0192DF4FE0DC06E
:102A0000FE01ED0DF11D8081803319F499EEF9225C
:102A100008C01F5FF2FE05C003C08F2D867809F045
:102A20001F5F0F2DF3FC14C0F0FE0FC01E1510F039
:102A30009D2C0BC09D2C9E0C911A1E2D06C080E271
:102A400090E0B3010E94A8151F5F1E15C0F304C0DB
:102A50001E1510F4E11A01C0EE2404FF0FC080E33C
:102A600090E0B3010E94A81502FF1DC001FD03C044
:102A700088E790E00EC088E590E00BC0802F867854
:102A800091F001FF02C08BE201C080E2F7FC8DE211
:102A900090E0B3010E94A81506C080E390E0B30166
:102AA0000E94A8159A94D914C0F3DA94F101ED0D9F
:102AB000F11D808190E0B3010E94A815DD20A9F7E7
:102AC00006C080E290E0B3010E94A815EA94EE20CF
:102AD000C1F743CEF30166817781CB012B96E2E10A
:102AE0000C943013F999FECF92BD81BDF89A9927C5
:102AF00080B50895262FF999FECF92BD81BDF89A31
:102B0000019700B4021639F01FBA20BD0FB6F89431
:102B1000FA9AF99A0FBE08950196272F0E947B1505
:102B20000C947A15FC010590615070400110D8F7A3
:102B3000809590958E0F9F1F0895FC016150704005
:102B400001900110D8F7809590958E0F9F1F0895E2
:102B50000F931F93CF93DF938C01EB018B8181FF48
:102B60001BC082FF0DC02E813F818C819D81281763
:102B7000390764F4E881F9810193F983E88306C099
:102B8000E885F985802F0995892B31F48E819F8105
:102B900001969F838E8302C00FEF1FEFC801DF9164
:102BA000CF911F910F910895FA01AA27283051F172
:102BB000203181F1E8946F936E7F6E5F7F4F8F4F6E
:102BC0009F4FAF4FB1E03ED0B4E03CD0670F781FCD
:102BD000891F9A1FA11D680F791F8A1F911DA11DB2
:102BE0006A0F711D811D911DA11D20D009F46894EB
:102BF0003F912AE0269F11243019305D3193DEF693
:102C0000CF010895462F4770405D4193B3E00FD048
:102C1000C9F7F6CF462F4F70405D4A3318F0495D33
:102C200031FD4052419302D0A9F7EACFB4E0A69516
:102C30009795879577956795BA95C9F70097610538
:102C4000710508959B01AC010A2E0694579547958E
:102C500037952795BA95C9F7620F731F841F951F83
:082C6000A01D0895F894FFCFB8
:102C680025750000000000000000000000000002C0
:102C780000000000BC0700000000C4F1293F21F853
:102C8800DAD4161604FAF605252B0B171F13FBE3E7
:102C9800C5BCEBECF80E293C2EF5D9CFDEECECE9FF
:102CA8000A422807F2E0E0FE2303B8EF2D513DE485
:102CB800DBF50F04D6B3CC4E27E4B1DE295C45EA38
:102CC800E9FBBEC4F839501BC9A52156560CD4C916
:102CD800E305F9D5C3CDFA3851389A9FDA0D180AA9
:102CE8001A3B3F4F4B15041503BA9999D204171193
:102CF8002E3FAAB6FC2429FEE3F21305FD1E282B5D
:0A2D080036380EE7ACB5EF1D2AFEC9
:00000001FF
