:100000000C9434000C9451000C9451000C94510049
:100010000C9451000C9451000C9451000C9451001C
:100020000C9451000C9451000C9451000C9451000C
:100030000C9451000C9451000C9451000C945100FC
:100040000C9451000C9451000C9451000C945100EC
:100050000C9451000C9451000C9451000C945100DC
:100060000C9451000C94510011241FBECFEFD8E026
:10007000DEBFCDBF12E0A0E4B2E0E0E8FCE002C0E9
:1000800005900D92A83AB107D9F712E0A8EAB2E0BC
:1000900001C01D92AF3AB107E1F70E947E000C94B7
:1000A0003E060C940000DF93CF9300D00F92CDB7A3
:1000B000DEB789837B836A83E0ECF0E08081882F60
:1000C00090E0807290700097B9F3E6ECF0E08981DF
:1000D000808380E090E00F900F900F90CF91DF91A0
:1000E0000895DF93CF93CDB7DEB78AE992E090937E
:1000F000AC028093AB02CF91DF910895DF93CF9351
:10010000CDB7DEB70E9471000E949E00282F30E01C
:1001100000D000D0EDB7FEB7319680E492E0918335
:100120008083338322830E9475030F900F900F907A
:100130000F9080E090E0CF91DF910895DF93CF930F
:1001400000D0CDB7DEB7198232C00E94E10088230B
:10015000B9F08981282F30E000D000D0EDB7FEB78C
:1001600031968FE692E091838083338322830E94CD
:1001700075030F900F900F900F9089818A831BC099
:100180008981282F30E000D000D0EDB7FEB731963E
:1001900086E892E091838083338322830E947503F3
:1001A0000F900F900F900F9089818F5F89838981C5
:1001B000883058F21A828A810F900F90CF91DF9188
:1001C0000895DF93CF9300D00F92CDB7DEB7198299
:1001D0008091A802282F30E03B832A834A815B81EB
:1001E0004130510511F18A819B818230910534F4AF
:1001F0002A813B812115310569F022C04A815B814A
:100200004730510509F43EC08A819B8188309105B1
:10021000C9F116C020E031E080E091E0B90140E48E
:1002200051E00E94540189832DC020E031E080E03C
:1002300092E0B90140E051E00E945401898322C05C
:100240008091A802882F90E0880F991F880F991F2E
:10025000909581959F4F9C012F5F3F4F80EC9FEFC2
:10026000AC01249FC001259F900D349F900D112457
:1002700080509F4F20E031E0B90140E451E00E94FE
:10028000540189838091A8028F5F8093A802809196
:10029000A802883010F01092A80289810F900F9068
:1002A0000F90CF91DF910895DF93CF93CDB7DEB755
:1002B0002C970FB6F894DEBF0FBECDBF98878F8303
:1002C0007A8769875C874B871D821C821B82298500
:1002D0003A858F81988528173907E9F01A821982A3
:1002E00013C089819A81A985BA85A80FB91F898110
:1002F0009A81EF81F885E80FF91F80818C938981BD
:100300009A8101969A83898389819A812B853C857C
:100310008217930730F31D821C820DC0EF81F88590
:100320008C819D81E80FF91F10822C813D812F5F08
:100330003F4F3D832C838C819D812B853C8582178B
:10034000930760F31D821C8243C0EF81F8858C8186
:100350009D81E80FF91F8081882321F09B819F5F99
:100360009B8308C0EF81F8852C813D81E20FF31F4C
:100370008FEF8083EF81F8858C819D81E80FF91FD5
:1003800080818F3F21F09B819F5F9B8307C0EF811E
:10039000F8852C813D81E20FF31F1082EF81F885F3
:1003A0008C819D81E80FF91F8081882321F09B813A
:1003B0009F5F9B8308C0EF81F8852C813D81E20F10
:1003C000F31F8FEF80838C819D8101969D838C83A9
:1003D0002C813D818B859C852817390708F4B5CF82
:1003E0001D821C8221C0EF81F8852C813D81E20FA6
:1003F000F31F80818F3F21F03B813F5F3B830FC024
:10040000EF81F8858C819D81E80FF91F1082EF81C3
:10041000F8852C813D81E20FF31F8FEF80838C8163
:100420009D8101969D838C832C813D818B859C854C
:1004300028173907C0F22B853C85215030403D8379
:100440002C8328C0EF81F8858C819D81E80FF91FEE
:1004500080818F3F21F09B819F5F9B8316C0EF813E
:10046000F8852C813D81E20FF31F1082EF81F88522
:100470008C819D81E80FF91F8FEF8083EF81F885D4
:100480002C813D81E20FF31F10828C819D810197A9
:100490009D838C832C813D812115310599F68B85B7
:1004A0009C8501979D838C8321C0EF81F8852C81E9
:1004B0003D81E20FF31F8081882321F03B813F5F64
:1004C0003B830FC0EF81F8858C819D81E80FF91F78
:1004D0008FEF8083EF81F8852C813D81E20FF31F40
:1004E00010828C819D8101979D838C832C813D811D
:1004F00021153105D1F61D821C820DC0EF81F885D2
:100500008C819D81E80FF91F10822C813D812F5F26
:100510003F4F3D832C838C819D812B853C858217A9
:10052000930760F31D821C821AC0EF81F8858C81CD
:100530009D81E80FF91F8081882321F09B819F5FB7
:100540009B8308C0EF81F8852C813D81E20FF31F6A
:100550008FEF80838C819D8101969D838C832C817C
:100560003D818B859C8528173907F8F21D821C82F6
:100570001AC0EF81F8852C813D81E20FF31F808145
:100580008F3F21F03B813F5F3B8307C0EF81F885C0
:100590008C819D81E80FF91F10822C813D812F5F96
:1005A0003F4F3D832C838C819D812B853C85821719
:1005B0009307F8F28B859C8501979D838C831BC0E4
:1005C000EF81F8852C813D81E20FF31F8081882324
:1005D00021F03B813F5F3B8308C0EF81F8858C8130
:1005E0009D81E80FF91F8FEF80832C813D81215081
:1005F00030403D832C838C819D81009709F72B85AA
:100600003C85215030403D832C8319C0EF81F88513
:100610008C819D81E80FF91F80818F3F21F09B81A4
:100620009F5F9B8307C0EF81F8852C813D81E20F9E
:10063000F31F10828C819D8101979D838C832C8177
:100640003D812115310511F78B859C8501979D838F
:100650008C8311C0EF81F8852C813D81E20FF31F5F
:100660008081882319F03B813F5F3B838C819D8192
:1006700001979D838C832C813D812115310551F794
:1006800089859A852F81388582179307E9F01D8225
:100690001C8213C0EF81F8858C819D81E80FF91FC2
:1006A000A985BA852C813D81A20FB31F8C918083CF
:1006B0008C819D8101969D838C832C813D818B85CE
:1006C0009C852817390730F39B81992319F021E085
:1006D0002E8301C01E828E812C960FB6F894DEBF49
:1006E0000FBECDBFCF91DF910895A0E0B0E0EBE762
:1006F000F3E00C941706FE0135966191719180919B
:10070000AB029091AC02AF010E948A032096E2E016
:100710000C943306ABE0B0E0E0E9F3E00C9407069C
:100720003C012B015A01FC0117821682838181FD55
:1007300003C06FEF7FEFC6C19AE0892E1E010894B7
:10074000211C311CF3012381F20123FD859123FF3C
:1007500081912F01882309F4B2C1853239F423FD38
:10076000859123FF81912F01853229F490E0B30117
:100770000E947D05E7CF982FFF24EE249924FFE106
:10078000FF15D0F09B3269F09C3228F4903259F07A
:10079000933291F40EC09D3249F0903369F441E0F8
:1007A00024C052E0F52A84E0F82A28C098E0F92A0B
:1007B00025C0E0E1FE2A22C0F7FC29C0892F805322
:1007C0008A3070F4F6FE05C0989C902C1124980E87
:1007D00015C0E89CE02C1124E80EF0E2FF2A0EC0C0
:1007E0009E3229F4F6FC6BC140E4F42A07C09C3623
:1007F00019F450E8F52A02C0983649F4F20123FDB5
:10080000959123FF91912F01992309F0B8CF892F5A
:100810008554833018F08052833038F444E050E03F
:10082000A40EB51E5FE359830FC0933631F09337A2
:1008300079F0933509F056C020C0F5018081898395
:1008400042E050E0A40EB51E610101E010E012C0CC
:10085000F501C080D180F6FC03C06FEF7FEF02C0CE
:10086000692D70E042E050E0A40EB51EC6010E9462
:1008700072058C015FE7F52214C0F501C080D180BC
:10088000F6FC03C06FEF7FEF02C0692D70E042E01D
:1008900050E0A40EB51EC6010E9467058C0150E809
:1008A000F52AF3FE07C01AC080E290E0B3010E946F
:1008B0007D05EA948E2D90E008171907A8F30EC065
:1008C000F601F7FC8591F7FE81916F0190E0B3018D
:1008D0000E947D05E110EA940150104001151105B8
:1008E00079F7EAC0943611F0993669F5F7FE08C039
:1008F000F501208131814281538184E090E00AC07A
:10090000F501808191819C01442737FD4095542F4A
:1009100082E090E0A80EB91E9FE6F92257FF09C0B9
:1009200050954095309521953F4F4F4F5F4FE0E8F0
:10093000FE2ACA01B901A1012AE030E00E94A905FE
:10094000D82ED21840C0953729F41F2D1F7E2AE0DB
:1009500030E01DC01F2D197F9F3661F0903720F4C5
:10096000983509F0ACC00FC0903739F0983709F0CE
:10097000A6C004C028E030E00AC0106114FD146075
:1009800020E130E004C014FD166020E132E017FFE2
:1009900008C0F501608171818281938144E050E05B
:1009A00008C0F50180819181BC0180E090E042E0C7
:1009B00050E0A40EB51EA1010E94A905D82ED218A0
:1009C0008FE7F82EF122F6FE0BC05EEFF522D91468
:1009D00038F4F4FE07C0F2FC05C08FEEF82202C026
:1009E0001D2D01C0192DF4FE0DC0FE01ED0DF11DF0
:1009F0008081803319F499EEF92208C01F5FF2FE5E
:100A000005C003C08F2D867809F01F5F0F2DF3FC02
:100A100014C0F0FE0FC01E1510F09D2C0BC09D2CB5
:100A20009E0C911A1E2D06C080E290E0B3010E9438
:100A30007D051F5F1E15C0F304C01E1510F4E11ADA
:100A400001C0EE2404FF0FC080E390E0B3010E94D8
:100A50007D0502FF1DC001FD03C088E790E00EC0C8
:100A600088E590E00BC0802F867891F001FF02C0EE
:100A70008BE201C080E2F7FC8DE290E0B3010E94BE
:100A80007D0506C080E390E0B3010E947D059A9445
:100A9000D914C0F3DA94F101ED0DF11D808190E0DD
:100AA000B3010E947D05DD20A9F706C080E290E039
:100AB000B3010E947D05EA94EE20C1F743CEF30115
:100AC00066817781CB012B96E2E10C942306FC0131
:100AD0000590615070400110D8F7809590958E0F69
:100AE0009F1F0895FC016150704001900110D8F7DC
:100AF000809590958E0F9F1F08950F931F93CF930E
:100B0000DF938C01EB018B8181FF1BC082FF0DC045
:100B10002E813F818C819D812817390764F4E881FB
:100B2000F9810193F983E88306C0E885F985802F70
:100B30000995892B31F48E819F8101969F838E8345
:100B400002C00FEF1FEFC801DF91CF911F910F91EE
:100B50000895FA01AA27283051F1203181F1E89453
:100B60006F936E7F6E5F7F4F8F4F9F4FAF4FB1E0A0
:100B70003ED0B4E03CD0670F781F891F9A1FA11D9B
:100B8000680F791F8A1F911DA11D6A0F711D811D9C
:100B9000911DA11D20D009F468943F912AE0269F61
:100BA00011243019305D3193DEF6CF010895462FC0
:100BB0004770405D4193B3E00FD0C9F7F6CF462FA1
:100BC0004F70405D4A3318F0495D31FD405241930A
:100BD00002D0A9F7EACFB4E0A695979587957795C7
:100BE0006795BA95C9F700976105710508959B014E
:100BF000AC010A2E06945795479537952795BA95D7
:100C0000C9F7620F731F841F951FA01D08952F92AF
:100C10003F924F925F926F927F928F929F92AF928C
:100C2000BF92CF92DF92EF92FF920F931F93CF93D9
:100C3000DF93CDB7DEB7CA1BDB0B0FB6F894DEBF70
:100C40000FBECDBF09942A88398848885F846E8496
:100C50007D848C849B84AA84B984C884DF80EE80E0
:100C6000FD800C811B81AA81B981CE0FD11D0FB6E9
:100C7000F894DEBF0FBECDBFED010895F894FFCF0D
:100C800046696E6973686564207372616D2074656E
:100C900073742077697468202564206465666563D1
:100CA000746976652073656374696F6E730A0053A7
:100CB00052414D204552524F52204020426C6F63AA
:100CC0006B2025640A005352414D204F4B20402099
:100CD000426C6F636B2025640A0000000002000074
:080CE0000000530000000000B9
:00000001FF
